{
	"prac.sol": {
		"Test": {
			"abi": [
				{
					"inputs": [],
					"stateMutability": "nonpayable",
					"type": "constructor"
				},
				{
					"inputs": [],
					"name": "get",
					"outputs": [
						{
							"internalType": "string",
							"name": "",
							"type": "string"
						}
					],
					"stateMutability": "view",
					"type": "function"
				},
				{
					"inputs": [
						{
							"internalType": "string",
							"name": "name",
							"type": "string"
						}
					],
					"name": "set",
					"outputs": [
						{
							"internalType": "string",
							"name": "",
							"type": "string"
						}
					],
					"stateMutability": "nonpayable",
					"type": "function"
				},
				{
					"inputs": [
						{
							"internalType": "uint256",
							"name": "data",
							"type": "uint256"
						}
					],
					"name": "status",
					"outputs": [],
					"stateMutability": "nonpayable",
					"type": "function"
				},
				{
					"inputs": [],
					"name": "store",
					"outputs": [
						{
							"internalType": "uint256",
							"name": "",
							"type": "uint256"
						}
					],
					"stateMutability": "view",
					"type": "function"
				}
			],
			"devdoc": {
				"kind": "dev",
				"methods": {},
				"version": 1
			},
			"evm": {
				"assembly": "    /* \"prac.sol\":60:533  contract Test {... */\n  mstore(0x40, 0x80)\n    /* \"prac.sol\":104:106  12 */\n  0x0c\n    /* \"prac.sol\":81:106  uint256 public store = 12 */\n  0x00\n  sstore\n    /* \"prac.sol\":424:520  constructor() { // this is used for setting default values ... */\n  callvalue\n  dup1\n  iszero\n  tag_1\n  jumpi\n  0x00\n  dup1\n  revert\ntag_1:\n  pop\n    /* \"prac.sol\":493:512  _name = \"hello ETH\" */\n  mload(0x40)\n  dup1\n  0x40\n  add\n  0x40\n  mstore\n  dup1\n  0x09\n  dup2\n  mstore\n  0x20\n  add\n  0x68656c6c6f204554480000000000000000000000000000000000000000000000\n  dup2\n  mstore\n  pop\n    /* \"prac.sol\":493:498  _name */\n  0x01\n    /* \"prac.sol\":493:512  _name = \"hello ETH\" */\n  swap1\n  dup2\n  tag_4\n  swap2\n  swap1\n  tag_5\n  jump\t// in\ntag_4:\n  pop\n    /* \"prac.sol\":60:533  contract Test {... */\n  jump(tag_6)\n    /* \"#utility.yul\":7:106   */\ntag_7:\n    /* \"#utility.yul\":59:65   */\n  0x00\n    /* \"#utility.yul\":93:98   */\n  dup2\n    /* \"#utility.yul\":87:99   */\n  mload\n    /* \"#utility.yul\":77:99   */\n  swap1\n  pop\n    /* \"#utility.yul\":7:106   */\n  swap2\n  swap1\n  pop\n  jump\t// out\n    /* \"#utility.yul\":112:292   */\ntag_8:\n    /* \"#utility.yul\":160:237   */\n  0x4e487b7100000000000000000000000000000000000000000000000000000000\n    /* \"#utility.yul\":157:158   */\n  0x00\n    /* \"#utility.yul\":150:238   */\n  mstore\n    /* \"#utility.yul\":257:261   */\n  0x41\n    /* \"#utility.yul\":254:255   */\n  0x04\n    /* \"#utility.yul\":247:262   */\n  mstore\n    /* \"#utility.yul\":281:285   */\n  0x24\n    /* \"#utility.yul\":278:279   */\n  0x00\n    /* \"#utility.yul\":271:286   */\n  revert\n    /* \"#utility.yul\":298:478   */\ntag_9:\n    /* \"#utility.yul\":346:423   */\n  0x4e487b7100000000000000000000000000000000000000000000000000000000\n    /* \"#utility.yul\":343:344   */\n  0x00\n    /* \"#utility.yul\":336:424   */\n  mstore\n    /* \"#utility.yul\":443:447   */\n  0x22\n    /* \"#utility.yul\":440:441   */\n  0x04\n    /* \"#utility.yul\":433:448   */\n  mstore\n    /* \"#utility.yul\":467:471   */\n  0x24\n    /* \"#utility.yul\":464:465   */\n  0x00\n    /* \"#utility.yul\":457:472   */\n  revert\n    /* \"#utility.yul\":484:804   */\ntag_10:\n    /* \"#utility.yul\":528:534   */\n  0x00\n    /* \"#utility.yul\":565:566   */\n  0x02\n    /* \"#utility.yul\":559:563   */\n  dup3\n    /* \"#utility.yul\":555:567   */\n  div\n    /* \"#utility.yul\":545:567   */\n  swap1\n  pop\n    /* \"#utility.yul\":612:613   */\n  0x01\n    /* \"#utility.yul\":606:610   */\n  dup3\n    /* \"#utility.yul\":602:614   */\n  and\n    /* \"#utility.yul\":633:651   */\n  dup1\n    /* \"#utility.yul\":623:704   */\n  tag_32\n  jumpi\n    /* \"#utility.yul\":689:693   */\n  0x7f\n    /* \"#utility.yul\":681:687   */\n  dup3\n    /* \"#utility.yul\":677:694   */\n  and\n    /* \"#utility.yul\":667:694   */\n  swap2\n  pop\n    /* \"#utility.yul\":623:704   */\ntag_32:\n    /* \"#utility.yul\":751:753   */\n  0x20\n    /* \"#utility.yul\":743:749   */\n  dup3\n    /* \"#utility.yul\":740:754   */\n  lt\n    /* \"#utility.yul\":720:738   */\n  dup2\n    /* \"#utility.yul\":717:755   */\n  sub\n    /* \"#utility.yul\":714:798   */\n  tag_33\n  jumpi\n    /* \"#utility.yul\":770:788   */\n  tag_34\n  tag_9\n  jump\t// in\ntag_34:\n    /* \"#utility.yul\":714:798   */\ntag_33:\n    /* \"#utility.yul\":535:804   */\n  pop\n    /* \"#utility.yul\":484:804   */\n  swap2\n  swap1\n  pop\n  jump\t// out\n    /* \"#utility.yul\":810:951   */\ntag_11:\n    /* \"#utility.yul\":859:863   */\n  0x00\n    /* \"#utility.yul\":882:885   */\n  dup2\n    /* \"#utility.yul\":874:885   */\n  swap1\n  pop\n    /* \"#utility.yul\":905:908   */\n  dup2\n    /* \"#utility.yul\":902:903   */\n  0x00\n    /* \"#utility.yul\":895:909   */\n  mstore\n    /* \"#utility.yul\":939:943   */\n  0x20\n    /* \"#utility.yul\":936:937   */\n  0x00\n    /* \"#utility.yul\":926:944   */\n  keccak256\n    /* \"#utility.yul\":918:944   */\n  swap1\n  pop\n    /* \"#utility.yul\":810:951   */\n  swap2\n  swap1\n  pop\n  jump\t// out\n    /* \"#utility.yul\":957:1050   */\ntag_12:\n    /* \"#utility.yul\":994:1000   */\n  0x00\n    /* \"#utility.yul\":1041:1043   */\n  0x20\n    /* \"#utility.yul\":1036:1038   */\n  0x1f\n    /* \"#utility.yul\":1029:1034   */\n  dup4\n    /* \"#utility.yul\":1025:1039   */\n  add\n    /* \"#utility.yul\":1021:1044   */\n  div\n    /* \"#utility.yul\":1011:1044   */\n  swap1\n  pop\n    /* \"#utility.yul\":957:1050   */\n  swap2\n  swap1\n  pop\n  jump\t// out\n    /* \"#utility.yul\":1056:1163   */\ntag_13:\n    /* \"#utility.yul\":1100:1108   */\n  0x00\n    /* \"#utility.yul\":1150:1155   */\n  dup3\n    /* \"#utility.yul\":1144:1148   */\n  dup3\n    /* \"#utility.yul\":1140:1156   */\n  shl\n    /* \"#utility.yul\":1119:1156   */\n  swap1\n  pop\n    /* \"#utility.yul\":1056:1163   */\n  swap3\n  swap2\n  pop\n  pop\n  jump\t// out\n    /* \"#utility.yul\":1169:1562   */\ntag_14:\n    /* \"#utility.yul\":1238:1244   */\n  0x00\n    /* \"#utility.yul\":1288:1289   */\n  0x08\n    /* \"#utility.yul\":1276:1286   */\n  dup4\n    /* \"#utility.yul\":1272:1290   */\n  mul\n    /* \"#utility.yul\":1311:1408   */\n  tag_39\n    /* \"#utility.yul\":1341:1407   */\n  0xffffffffffffffffffffffffffffffffffffffffffffffffffffffffffffffff\n    /* \"#utility.yul\":1330:1339   */\n  dup3\n    /* \"#utility.yul\":1311:1408   */\n  tag_13\n  jump\t// in\ntag_39:\n    /* \"#utility.yul\":1429:1468   */\n  tag_40\n    /* \"#utility.yul\":1459:1467   */\n  dup7\n    /* \"#utility.yul\":1448:1457   */\n  dup4\n    /* \"#utility.yul\":1429:1468   */\n  tag_13\n  jump\t// in\ntag_40:\n    /* \"#utility.yul\":1417:1468   */\n  swap6\n  pop\n    /* \"#utility.yul\":1501:1505   */\n  dup1\n    /* \"#utility.yul\":1497:1506   */\n  not\n    /* \"#utility.yul\":1490:1495   */\n  dup5\n    /* \"#utility.yul\":1486:1507   */\n  and\n    /* \"#utility.yul\":1477:1507   */\n  swap4\n  pop\n    /* \"#utility.yul\":1550:1554   */\n  dup1\n    /* \"#utility.yul\":1540:1548   */\n  dup7\n    /* \"#utility.yul\":1536:1555   */\n  and\n    /* \"#utility.yul\":1529:1534   */\n  dup5\n    /* \"#utility.yul\":1526:1556   */\n  or\n    /* \"#utility.yul\":1516:1556   */\n  swap3\n  pop\n    /* \"#utility.yul\":1245:1562   */\n  pop\n  pop\n    /* \"#utility.yul\":1169:1562   */\n  swap4\n  swap3\n  pop\n  pop\n  pop\n  jump\t// out\n    /* \"#utility.yul\":1568:1645   */\ntag_15:\n    /* \"#utility.yul\":1605:1612   */\n  0x00\n    /* \"#utility.yul\":1634:1639   */\n  dup2\n    /* \"#utility.yul\":1623:1639   */\n  swap1\n  pop\n    /* \"#utility.yul\":1568:1645   */\n  swap2\n  swap1\n  pop\n  jump\t// out\n    /* \"#utility.yul\":1651:1711   */\ntag_16:\n    /* \"#utility.yul\":1679:1682   */\n  0x00\n    /* \"#utility.yul\":1700:1705   */\n  dup2\n    /* \"#utility.yul\":1693:1705   */\n  swap1\n  pop\n    /* \"#utility.yul\":1651:1711   */\n  swap2\n  swap1\n  pop\n  jump\t// out\n    /* \"#utility.yul\":1717:1859   */\ntag_17:\n    /* \"#utility.yul\":1767:1776   */\n  0x00\n    /* \"#utility.yul\":1800:1853   */\n  tag_44\n    /* \"#utility.yul\":1818:1852   */\n  tag_45\n    /* \"#utility.yul\":1827:1851   */\n  tag_46\n    /* \"#utility.yul\":1845:1850   */\n  dup5\n    /* \"#utility.yul\":1827:1851   */\n  tag_15\n  jump\t// in\ntag_46:\n    /* \"#utility.yul\":1818:1852   */\n  tag_16\n  jump\t// in\ntag_45:\n    /* \"#utility.yul\":1800:1853   */\n  tag_15\n  jump\t// in\ntag_44:\n    /* \"#utility.yul\":1787:1853   */\n  swap1\n  pop\n    /* \"#utility.yul\":1717:1859   */\n  swap2\n  swap1\n  pop\n  jump\t// out\n    /* \"#utility.yul\":1865:1940   */\ntag_18:\n    /* \"#utility.yul\":1908:1911   */\n  0x00\n    /* \"#utility.yul\":1929:1934   */\n  dup2\n    /* \"#utility.yul\":1922:1934   */\n  swap1\n  pop\n    /* \"#utility.yul\":1865:1940   */\n  swap2\n  swap1\n  pop\n  jump\t// out\n    /* \"#utility.yul\":1946:2215   */\ntag_19:\n    /* \"#utility.yul\":2056:2095   */\n  tag_49\n    /* \"#utility.yul\":2087:2094   */\n  dup4\n    /* \"#utility.yul\":2056:2095   */\n  tag_17\n  jump\t// in\ntag_49:\n    /* \"#utility.yul\":2117:2208   */\n  tag_50\n    /* \"#utility.yul\":2166:2207   */\n  tag_51\n    /* \"#utility.yul\":2190:2206   */\n  dup3\n    /* \"#utility.yul\":2166:2207   */\n  tag_18\n  jump\t// in\ntag_51:\n    /* \"#utility.yul\":2158:2164   */\n  dup5\n    /* \"#utility.yul\":2151:2155   */\n  dup5\n    /* \"#utility.yul\":2145:2156   */\n  sload\n    /* \"#utility.yul\":2117:2208   */\n  tag_14\n  jump\t// in\ntag_50:\n    /* \"#utility.yul\":2111:2115   */\n  dup3\n    /* \"#utility.yul\":2104:2209   */\n  sstore\n    /* \"#utility.yul\":2022:2215   */\n  pop\n    /* \"#utility.yul\":1946:2215   */\n  pop\n  pop\n  pop\n  jump\t// out\n    /* \"#utility.yul\":2221:2294   */\ntag_20:\n    /* \"#utility.yul\":2266:2269   */\n  0x00\n    /* \"#utility.yul\":2221:2294   */\n  swap1\n  jump\t// out\n    /* \"#utility.yul\":2300:2489   */\ntag_21:\n    /* \"#utility.yul\":2377:2409   */\n  tag_54\n  tag_20\n  jump\t// in\ntag_54:\n    /* \"#utility.yul\":2418:2483   */\n  tag_55\n    /* \"#utility.yul\":2476:2482   */\n  dup2\n    /* \"#utility.yul\":2468:2474   */\n  dup5\n    /* \"#utility.yul\":2462:2466   */\n  dup5\n    /* \"#utility.yul\":2418:2483   */\n  tag_19\n  jump\t// in\ntag_55:\n    /* \"#utility.yul\":2353:2489   */\n  pop\n    /* \"#utility.yul\":2300:2489   */\n  pop\n  pop\n  jump\t// out\n    /* \"#utility.yul\":2495:2681   */\ntag_22:\n    /* \"#utility.yul\":2555:2675   */\ntag_57:\n    /* \"#utility.yul\":2572:2575   */\n  dup2\n    /* \"#utility.yul\":2565:2570   */\n  dup2\n    /* \"#utility.yul\":2562:2576   */\n  lt\n    /* \"#utility.yul\":2555:2675   */\n  iszero\n  tag_59\n  jumpi\n    /* \"#utility.yul\":2626:2665   */\n  tag_60\n    /* \"#utility.yul\":2663:2664   */\n  0x00\n    /* \"#utility.yul\":2656:2661   */\n  dup3\n    /* \"#utility.yul\":2626:2665   */\n  tag_21\n  jump\t// in\ntag_60:\n    /* \"#utility.yul\":2599:2600   */\n  0x01\n    /* \"#utility.yul\":2592:2597   */\n  dup2\n    /* \"#utility.yul\":2588:2601   */\n  add\n    /* \"#utility.yul\":2579:2601   */\n  swap1\n  pop\n    /* \"#utility.yul\":2555:2675   */\n  jump(tag_57)\ntag_59:\n    /* \"#utility.yul\":2495:2681   */\n  pop\n  pop\n  jump\t// out\n    /* \"#utility.yul\":2687:3230   */\ntag_23:\n    /* \"#utility.yul\":2788:2790   */\n  0x1f\n    /* \"#utility.yul\":2783:2786   */\n  dup3\n    /* \"#utility.yul\":2780:2791   */\n  gt\n    /* \"#utility.yul\":2777:3223   */\n  iszero\n  tag_62\n  jumpi\n    /* \"#utility.yul\":2822:2860   */\n  tag_63\n    /* \"#utility.yul\":2854:2859   */\n  dup2\n    /* \"#utility.yul\":2822:2860   */\n  tag_11\n  jump\t// in\ntag_63:\n    /* \"#utility.yul\":2906:2935   */\n  tag_64\n    /* \"#utility.yul\":2924:2934   */\n  dup5\n    /* \"#utility.yul\":2906:2935   */\n  tag_12\n  jump\t// in\ntag_64:\n    /* \"#utility.yul\":2896:2904   */\n  dup2\n    /* \"#utility.yul\":2892:2936   */\n  add\n    /* \"#utility.yul\":3089:3091   */\n  0x20\n    /* \"#utility.yul\":3077:3087   */\n  dup6\n    /* \"#utility.yul\":3074:3092   */\n  lt\n    /* \"#utility.yul\":3071:3120   */\n  iszero\n  tag_65\n  jumpi\n    /* \"#utility.yul\":3110:3118   */\n  dup2\n    /* \"#utility.yul\":3095:3118   */\n  swap1\n  pop\n    /* \"#utility.yul\":3071:3120   */\ntag_65:\n    /* \"#utility.yul\":3133:3213   */\n  tag_66\n    /* \"#utility.yul\":3189:3211   */\n  tag_67\n    /* \"#utility.yul\":3207:3210   */\n  dup6\n    /* \"#utility.yul\":3189:3211   */\n  tag_12\n  jump\t// in\ntag_67:\n    /* \"#utility.yul\":3179:3187   */\n  dup4\n    /* \"#utility.yul\":3175:3212   */\n  add\n    /* \"#utility.yul\":3162:3173   */\n  dup3\n    /* \"#utility.yul\":3133:3213   */\n  tag_22\n  jump\t// in\ntag_66:\n    /* \"#utility.yul\":2792:3223   */\n  pop\n  pop\n    /* \"#utility.yul\":2777:3223   */\ntag_62:\n    /* \"#utility.yul\":2687:3230   */\n  pop\n  pop\n  pop\n  jump\t// out\n    /* \"#utility.yul\":3236:3353   */\ntag_24:\n    /* \"#utility.yul\":3290:3298   */\n  0x00\n    /* \"#utility.yul\":3340:3345   */\n  dup3\n    /* \"#utility.yul\":3334:3338   */\n  dup3\n    /* \"#utility.yul\":3330:3346   */\n  shr\n    /* \"#utility.yul\":3309:3346   */\n  swap1\n  pop\n    /* \"#utility.yul\":3236:3353   */\n  swap3\n  swap2\n  pop\n  pop\n  jump\t// out\n    /* \"#utility.yul\":3359:3528   */\ntag_25:\n    /* \"#utility.yul\":3403:3409   */\n  0x00\n    /* \"#utility.yul\":3436:3487   */\n  tag_70\n    /* \"#utility.yul\":3484:3485   */\n  0x00\n    /* \"#utility.yul\":3480:3486   */\n  not\n    /* \"#utility.yul\":3472:3477   */\n  dup5\n    /* \"#utility.yul\":3469:3470   */\n  0x08\n    /* \"#utility.yul\":3465:3478   */\n  mul\n    /* \"#utility.yul\":3436:3487   */\n  tag_24\n  jump\t// in\ntag_70:\n    /* \"#utility.yul\":3432:3488   */\n  not\n    /* \"#utility.yul\":3517:3521   */\n  dup1\n    /* \"#utility.yul\":3511:3515   */\n  dup4\n    /* \"#utility.yul\":3507:3522   */\n  and\n    /* \"#utility.yul\":3497:3522   */\n  swap2\n  pop\n    /* \"#utility.yul\":3410:3528   */\n  pop\n    /* \"#utility.yul\":3359:3528   */\n  swap3\n  swap2\n  pop\n  pop\n  jump\t// out\n    /* \"#utility.yul\":3533:3828   */\ntag_26:\n    /* \"#utility.yul\":3609:3613   */\n  0x00\n    /* \"#utility.yul\":3755:3784   */\n  tag_72\n    /* \"#utility.yul\":3780:3783   */\n  dup4\n    /* \"#utility.yul\":3774:3778   */\n  dup4\n    /* \"#utility.yul\":3755:3784   */\n  tag_25\n  jump\t// in\ntag_72:\n    /* \"#utility.yul\":3747:3784   */\n  swap2\n  pop\n    /* \"#utility.yul\":3817:3820   */\n  dup3\n    /* \"#utility.yul\":3814:3815   */\n  0x02\n    /* \"#utility.yul\":3810:3821   */\n  mul\n    /* \"#utility.yul\":3804:3808   */\n  dup3\n    /* \"#utility.yul\":3801:3822   */\n  or\n    /* \"#utility.yul\":3793:3822   */\n  swap1\n  pop\n    /* \"#utility.yul\":3533:3828   */\n  swap3\n  swap2\n  pop\n  pop\n  jump\t// out\n    /* \"#utility.yul\":3833:5228   */\ntag_5:\n    /* \"#utility.yul\":3950:3987   */\n  tag_74\n    /* \"#utility.yul\":3983:3986   */\n  dup3\n    /* \"#utility.yul\":3950:3987   */\n  tag_7\n  jump\t// in\ntag_74:\n    /* \"#utility.yul\":4052:4070   */\n  0xffffffffffffffff\n    /* \"#utility.yul\":4044:4050   */\n  dup2\n    /* \"#utility.yul\":4041:4071   */\n  gt\n    /* \"#utility.yul\":4038:4094   */\n  iszero\n  tag_75\n  jumpi\n    /* \"#utility.yul\":4074:4092   */\n  tag_76\n  tag_8\n  jump\t// in\ntag_76:\n    /* \"#utility.yul\":4038:4094   */\ntag_75:\n    /* \"#utility.yul\":4118:4156   */\n  tag_77\n    /* \"#utility.yul\":4150:4154   */\n  dup3\n    /* \"#utility.yul\":4144:4155   */\n  sload\n    /* \"#utility.yul\":4118:4156   */\n  tag_10\n  jump\t// in\ntag_77:\n    /* \"#utility.yul\":4203:4270   */\n  tag_78\n    /* \"#utility.yul\":4263:4269   */\n  dup3\n    /* \"#utility.yul\":4255:4261   */\n  dup3\n    /* \"#utility.yul\":4249:4253   */\n  dup6\n    /* \"#utility.yul\":4203:4270   */\n  tag_23\n  jump\t// in\ntag_78:\n    /* \"#utility.yul\":4297:4298   */\n  0x00\n    /* \"#utility.yul\":4321:4325   */\n  0x20\n    /* \"#utility.yul\":4308:4325   */\n  swap1\n  pop\n    /* \"#utility.yul\":4353:4355   */\n  0x1f\n    /* \"#utility.yul\":4345:4351   */\n  dup4\n    /* \"#utility.yul\":4342:4356   */\n  gt\n    /* \"#utility.yul\":4370:4371   */\n  0x01\n    /* \"#utility.yul\":4365:4983   */\n  dup2\n  eq\n  tag_80\n  jumpi\n    /* \"#utility.yul\":5027:5028   */\n  0x00\n    /* \"#utility.yul\":5044:5050   */\n  dup5\n    /* \"#utility.yul\":5041:5118   */\n  iszero\n  tag_81\n  jumpi\n    /* \"#utility.yul\":5093:5102   */\n  dup3\n    /* \"#utility.yul\":5088:5091   */\n  dup8\n    /* \"#utility.yul\":5084:5103   */\n  add\n    /* \"#utility.yul\":5078:5104   */\n  mload\n    /* \"#utility.yul\":5069:5104   */\n  swap1\n  pop\n    /* \"#utility.yul\":5041:5118   */\ntag_81:\n    /* \"#utility.yul\":5144:5211   */\n  tag_82\n    /* \"#utility.yul\":5204:5210   */\n  dup6\n    /* \"#utility.yul\":5197:5202   */\n  dup3\n    /* \"#utility.yul\":5144:5211   */\n  tag_26\n  jump\t// in\ntag_82:\n    /* \"#utility.yul\":5138:5142   */\n  dup7\n    /* \"#utility.yul\":5131:5212   */\n  sstore\n    /* \"#utility.yul\":5000:5222   */\n  pop\n    /* \"#utility.yul\":4335:5222   */\n  jump(tag_79)\n    /* \"#utility.yul\":4365:4983   */\ntag_80:\n    /* \"#utility.yul\":4417:4421   */\n  0x1f\n    /* \"#utility.yul\":4413:4422   */\n  not\n    /* \"#utility.yul\":4405:4411   */\n  dup5\n    /* \"#utility.yul\":4401:4423   */\n  and\n    /* \"#utility.yul\":4451:4488   */\n  tag_83\n    /* \"#utility.yul\":4483:4487   */\n  dup7\n    /* \"#utility.yul\":4451:4488   */\n  tag_11\n  jump\t// in\ntag_83:\n    /* \"#utility.yul\":4510:4511   */\n  0x00\n    /* \"#utility.yul\":4524:4732   */\ntag_84:\n    /* \"#utility.yul\":4538:4545   */\n  dup3\n    /* \"#utility.yul\":4535:4536   */\n  dup2\n    /* \"#utility.yul\":4532:4546   */\n  lt\n    /* \"#utility.yul\":4524:4732   */\n  iszero\n  tag_86\n  jumpi\n    /* \"#utility.yul\":4617:4626   */\n  dup5\n    /* \"#utility.yul\":4612:4615   */\n  dup10\n    /* \"#utility.yul\":4608:4627   */\n  add\n    /* \"#utility.yul\":4602:4628   */\n  mload\n    /* \"#utility.yul\":4594:4600   */\n  dup3\n    /* \"#utility.yul\":4587:4629   */\n  sstore\n    /* \"#utility.yul\":4668:4669   */\n  0x01\n    /* \"#utility.yul\":4660:4666   */\n  dup3\n    /* \"#utility.yul\":4656:4670   */\n  add\n    /* \"#utility.yul\":4646:4670   */\n  swap2\n  pop\n    /* \"#utility.yul\":4715:4717   */\n  0x20\n    /* \"#utility.yul\":4704:4713   */\n  dup6\n    /* \"#utility.yul\":4700:4718   */\n  add\n    /* \"#utility.yul\":4687:4718   */\n  swap5\n  pop\n    /* \"#utility.yul\":4561:4565   */\n  0x20\n    /* \"#utility.yul\":4558:4559   */\n  dup2\n    /* \"#utility.yul\":4554:4566   */\n  add\n    /* \"#utility.yul\":4549:4566   */\n  swap1\n  pop\n    /* \"#utility.yul\":4524:4732   */\n  jump(tag_84)\ntag_86:\n    /* \"#utility.yul\":4760:4766   */\n  dup7\n    /* \"#utility.yul\":4751:4758   */\n  dup4\n    /* \"#utility.yul\":4748:4767   */\n  lt\n    /* \"#utility.yul\":4745:4924   */\n  iszero\n  tag_87\n  jumpi\n    /* \"#utility.yul\":4818:4827   */\n  dup5\n    /* \"#utility.yul\":4813:4816   */\n  dup10\n    /* \"#utility.yul\":4809:4828   */\n  add\n    /* \"#utility.yul\":4803:4829   */\n  mload\n    /* \"#utility.yul\":4861:4909   */\n  tag_88\n    /* \"#utility.yul\":4903:4907   */\n  0x1f\n    /* \"#utility.yul\":4895:4901   */\n  dup10\n    /* \"#utility.yul\":4891:4908   */\n  and\n    /* \"#utility.yul\":4880:4889   */\n  dup3\n    /* \"#utility.yul\":4861:4909   */\n  tag_25\n  jump\t// in\ntag_88:\n    /* \"#utility.yul\":4853:4859   */\n  dup4\n    /* \"#utility.yul\":4846:4910   */\n  sstore\n    /* \"#utility.yul\":4768:4924   */\n  pop\n    /* \"#utility.yul\":4745:4924   */\ntag_87:\n    /* \"#utility.yul\":4970:4971   */\n  0x01\n    /* \"#utility.yul\":4966:4967   */\n  0x02\n    /* \"#utility.yul\":4958:4964   */\n  dup9\n    /* \"#utility.yul\":4954:4968   */\n  mul\n    /* \"#utility.yul\":4950:4972   */\n  add\n    /* \"#utility.yul\":4944:4948   */\n  dup9\n    /* \"#utility.yul\":4937:4973   */\n  sstore\n    /* \"#utility.yul\":4372:4983   */\n  pop\n  pop\n  pop\n    /* \"#utility.yul\":4335:5222   */\ntag_79:\n  pop\n    /* \"#utility.yul\":3925:5228   */\n  pop\n  pop\n  pop\n    /* \"#utility.yul\":3833:5228   */\n  pop\n  pop\n  jump\t// out\n    /* \"prac.sol\":60:533  contract Test {... */\ntag_6:\n  dataSize(sub_0)\n  dup1\n  dataOffset(sub_0)\n  0x00\n  codecopy\n  0x00\n  return\nstop\n\nsub_0: assembly {\n        /* \"prac.sol\":60:533  contract Test {... */\n      mstore(0x40, 0x80)\n      callvalue\n      dup1\n      iszero\n      tag_1\n      jumpi\n      0x00\n      dup1\n      revert\n    tag_1:\n      pop\n      jumpi(tag_2, lt(calldatasize, 0x04))\n      shr(0xe0, calldataload(0x00))\n      dup1\n      0x42d21ef7\n      eq\n      tag_3\n      jumpi\n      dup1\n      0x4ed3885e\n      eq\n      tag_4\n      jumpi\n      dup1\n      0x6d4ce63c\n      eq\n      tag_5\n      jumpi\n      dup1\n      0x975057e7\n      eq\n      tag_6\n      jumpi\n    tag_2:\n      0x00\n      dup1\n      revert\n        /* \"prac.sol\":134:202  function status(uint256 data) public {... */\n    tag_3:\n      tag_7\n      0x04\n      dup1\n      calldatasize\n      sub\n      dup2\n      add\n      swap1\n      tag_8\n      swap2\n      swap1\n      tag_9\n      jump\t// in\n    tag_8:\n      tag_10\n      jump\t// in\n    tag_7:\n      stop\n        /* \"prac.sol\":299:416  function set(string memory name) public returns(string memory) {... */\n    tag_4:\n      tag_11\n      0x04\n      dup1\n      calldatasize\n      sub\n      dup2\n      add\n      swap1\n      tag_12\n      swap2\n      swap1\n      tag_13\n      jump\t// in\n    tag_12:\n      tag_14\n      jump\t// in\n    tag_11:\n      mload(0x40)\n      tag_15\n      swap2\n      swap1\n      tag_16\n      jump\t// in\n    tag_15:\n      mload(0x40)\n      dup1\n      swap2\n      sub\n      swap1\n      return\n        /* \"prac.sol\":210:291  function get() public view returns(string memory) {... */\n    tag_5:\n      tag_17\n      tag_18\n      jump\t// in\n    tag_17:\n      mload(0x40)\n      tag_19\n      swap2\n      swap1\n      tag_16\n      jump\t// in\n    tag_19:\n      mload(0x40)\n      dup1\n      swap2\n      sub\n      swap1\n      return\n        /* \"prac.sol\":81:106  uint256 public store = 12 */\n    tag_6:\n      tag_20\n      tag_21\n      jump\t// in\n    tag_20:\n      mload(0x40)\n      tag_22\n      swap2\n      swap1\n      tag_23\n      jump\t// in\n    tag_22:\n      mload(0x40)\n      dup1\n      swap2\n      sub\n      swap1\n      return\n        /* \"prac.sol\":134:202  function status(uint256 data) public {... */\n    tag_10:\n        /* \"prac.sol\":190:194  data */\n      dup1\n        /* \"prac.sol\":182:187  store */\n      0x00\n        /* \"prac.sol\":182:194  store = data */\n      dup2\n      swap1\n      sstore\n      pop\n        /* \"prac.sol\":134:202  function status(uint256 data) public {... */\n      pop\n      jump\t// out\n        /* \"prac.sol\":299:416  function set(string memory name) public returns(string memory) {... */\n    tag_14:\n        /* \"prac.sol\":347:360  string memory */\n      0x60\n        /* \"prac.sol\":381:385  name */\n      dup2\n        /* \"prac.sol\":373:378  _name */\n      0x01\n        /* \"prac.sol\":373:385  _name = name */\n      swap1\n      dup2\n      tag_26\n      swap2\n      swap1\n      tag_27\n      jump\t// in\n    tag_26:\n      pop\n        /* \"prac.sol\":403:408  _name */\n      0x01\n        /* \"prac.sol\":396:408  return _name */\n      dup1\n      sload\n      tag_28\n      swap1\n      tag_29\n      jump\t// in\n    tag_28:\n      dup1\n      0x1f\n      add\n      0x20\n      dup1\n      swap2\n      div\n      mul\n      0x20\n      add\n      mload(0x40)\n      swap1\n      dup2\n      add\n      0x40\n      mstore\n      dup1\n      swap3\n      swap2\n      swap1\n      dup2\n      dup2\n      mstore\n      0x20\n      add\n      dup3\n      dup1\n      sload\n      tag_30\n      swap1\n      tag_29\n      jump\t// in\n    tag_30:\n      dup1\n      iszero\n      tag_31\n      jumpi\n      dup1\n      0x1f\n      lt\n      tag_32\n      jumpi\n      0x0100\n      dup1\n      dup4\n      sload\n      div\n      mul\n      dup4\n      mstore\n      swap2\n      0x20\n      add\n      swap2\n      jump(tag_31)\n    tag_32:\n      dup3\n      add\n      swap2\n      swap1\n      0x00\n      mstore\n      keccak256(0x00, 0x20)\n      swap1\n    tag_33:\n      dup2\n      sload\n      dup2\n      mstore\n      swap1\n      0x01\n      add\n      swap1\n      0x20\n      add\n      dup1\n      dup4\n      gt\n      tag_33\n      jumpi\n      dup3\n      swap1\n      sub\n      0x1f\n      and\n      dup3\n      add\n      swap2\n    tag_31:\n      pop\n      pop\n      pop\n      pop\n      pop\n      swap1\n      pop\n        /* \"prac.sol\":299:416  function set(string memory name) public returns(string memory) {... */\n      swap2\n      swap1\n      pop\n      jump\t// out\n        /* \"prac.sol\":210:291  function get() public view returns(string memory) {... */\n    tag_18:\n        /* \"prac.sol\":245:258  string memory */\n      0x60\n        /* \"prac.sol\":278:283  _name */\n      0x01\n        /* \"prac.sol\":271:283  return _name */\n      dup1\n      sload\n      tag_35\n      swap1\n      tag_29\n      jump\t// in\n    tag_35:\n      dup1\n      0x1f\n      add\n      0x20\n      dup1\n      swap2\n      div\n      mul\n      0x20\n      add\n      mload(0x40)\n      swap1\n      dup2\n      add\n      0x40\n      mstore\n      dup1\n      swap3\n      swap2\n      swap1\n      dup2\n      dup2\n      mstore\n      0x20\n      add\n      dup3\n      dup1\n      sload\n      tag_36\n      swap1\n      tag_29\n      jump\t// in\n    tag_36:\n      dup1\n      iszero\n      tag_37\n      jumpi\n      dup1\n      0x1f\n      lt\n      tag_38\n      jumpi\n      0x0100\n      dup1\n      dup4\n      sload\n      div\n      mul\n      dup4\n      mstore\n      swap2\n      0x20\n      add\n      swap2\n      jump(tag_37)\n    tag_38:\n      dup3\n      add\n      swap2\n      swap1\n      0x00\n      mstore\n      keccak256(0x00, 0x20)\n      swap1\n    tag_39:\n      dup2\n      sload\n      dup2\n      mstore\n      swap1\n      0x01\n      add\n      swap1\n      0x20\n      add\n      dup1\n      dup4\n      gt\n      tag_39\n      jumpi\n      dup3\n      swap1\n      sub\n      0x1f\n      and\n      dup3\n      add\n      swap2\n    tag_37:\n      pop\n      pop\n      pop\n      pop\n      pop\n      swap1\n      pop\n        /* \"prac.sol\":210:291  function get() public view returns(string memory) {... */\n      swap1\n      jump\t// out\n        /* \"prac.sol\":81:106  uint256 public store = 12 */\n    tag_21:\n      sload(0x00)\n      dup2\n      jump\t// out\n        /* \"#utility.yul\":7:82   */\n    tag_40:\n        /* \"#utility.yul\":40:46   */\n      0x00\n        /* \"#utility.yul\":73:75   */\n      0x40\n        /* \"#utility.yul\":67:76   */\n      mload\n        /* \"#utility.yul\":57:76   */\n      swap1\n      pop\n        /* \"#utility.yul\":7:82   */\n      swap1\n      jump\t// out\n        /* \"#utility.yul\":88:205   */\n    tag_41:\n        /* \"#utility.yul\":197:198   */\n      0x00\n        /* \"#utility.yul\":194:195   */\n      dup1\n        /* \"#utility.yul\":187:199   */\n      revert\n        /* \"#utility.yul\":211:328   */\n    tag_42:\n        /* \"#utility.yul\":320:321   */\n      0x00\n        /* \"#utility.yul\":317:318   */\n      dup1\n        /* \"#utility.yul\":310:322   */\n      revert\n        /* \"#utility.yul\":334:411   */\n    tag_43:\n        /* \"#utility.yul\":371:378   */\n      0x00\n        /* \"#utility.yul\":400:405   */\n      dup2\n        /* \"#utility.yul\":389:405   */\n      swap1\n      pop\n        /* \"#utility.yul\":334:411   */\n      swap2\n      swap1\n      pop\n      jump\t// out\n        /* \"#utility.yul\":417:539   */\n    tag_44:\n        /* \"#utility.yul\":490:514   */\n      tag_83\n        /* \"#utility.yul\":508:513   */\n      dup2\n        /* \"#utility.yul\":490:514   */\n      tag_43\n      jump\t// in\n    tag_83:\n        /* \"#utility.yul\":483:488   */\n      dup2\n        /* \"#utility.yul\":480:515   */\n      eq\n        /* \"#utility.yul\":470:533   */\n      tag_84\n      jumpi\n        /* \"#utility.yul\":529:530   */\n      0x00\n        /* \"#utility.yul\":526:527   */\n      dup1\n        /* \"#utility.yul\":519:531   */\n      revert\n        /* \"#utility.yul\":470:533   */\n    tag_84:\n        /* \"#utility.yul\":417:539   */\n      pop\n      jump\t// out\n        /* \"#utility.yul\":545:684   */\n    tag_45:\n        /* \"#utility.yul\":591:596   */\n      0x00\n        /* \"#utility.yul\":629:635   */\n      dup2\n        /* \"#utility.yul\":616:636   */\n      calldataload\n        /* \"#utility.yul\":607:636   */\n      swap1\n      pop\n        /* \"#utility.yul\":645:678   */\n      tag_86\n        /* \"#utility.yul\":672:677   */\n      dup2\n        /* \"#utility.yul\":645:678   */\n      tag_44\n      jump\t// in\n    tag_86:\n        /* \"#utility.yul\":545:684   */\n      swap3\n      swap2\n      pop\n      pop\n      jump\t// out\n        /* \"#utility.yul\":690:1019   */\n    tag_9:\n        /* \"#utility.yul\":749:755   */\n      0x00\n        /* \"#utility.yul\":798:800   */\n      0x20\n        /* \"#utility.yul\":786:795   */\n      dup3\n        /* \"#utility.yul\":777:784   */\n      dup5\n        /* \"#utility.yul\":773:796   */\n      sub\n        /* \"#utility.yul\":769:801   */\n      slt\n        /* \"#utility.yul\":766:885   */\n      iszero\n      tag_88\n      jumpi\n        /* \"#utility.yul\":804:883   */\n      tag_89\n      tag_41\n      jump\t// in\n    tag_89:\n        /* \"#utility.yul\":766:885   */\n    tag_88:\n        /* \"#utility.yul\":924:925   */\n      0x00\n        /* \"#utility.yul\":949:1002   */\n      tag_90\n        /* \"#utility.yul\":994:1001   */\n      dup5\n        /* \"#utility.yul\":985:991   */\n      dup3\n        /* \"#utility.yul\":974:983   */\n      dup6\n        /* \"#utility.yul\":970:992   */\n      add\n        /* \"#utility.yul\":949:1002   */\n      tag_45\n      jump\t// in\n    tag_90:\n        /* \"#utility.yul\":939:1002   */\n      swap2\n      pop\n        /* \"#utility.yul\":895:1012   */\n      pop\n        /* \"#utility.yul\":690:1019   */\n      swap3\n      swap2\n      pop\n      pop\n      jump\t// out\n        /* \"#utility.yul\":1025:1142   */\n    tag_46:\n        /* \"#utility.yul\":1134:1135   */\n      0x00\n        /* \"#utility.yul\":1131:1132   */\n      dup1\n        /* \"#utility.yul\":1124:1136   */\n      revert\n        /* \"#utility.yul\":1148:1265   */\n    tag_47:\n        /* \"#utility.yul\":1257:1258   */\n      0x00\n        /* \"#utility.yul\":1254:1255   */\n      dup1\n        /* \"#utility.yul\":1247:1259   */\n      revert\n        /* \"#utility.yul\":1271:1373   */\n    tag_48:\n        /* \"#utility.yul\":1312:1318   */\n      0x00\n        /* \"#utility.yul\":1363:1365   */\n      0x1f\n        /* \"#utility.yul\":1359:1366   */\n      not\n        /* \"#utility.yul\":1354:1356   */\n      0x1f\n        /* \"#utility.yul\":1347:1352   */\n      dup4\n        /* \"#utility.yul\":1343:1357   */\n      add\n        /* \"#utility.yul\":1339:1367   */\n      and\n        /* \"#utility.yul\":1329:1367   */\n      swap1\n      pop\n        /* \"#utility.yul\":1271:1373   */\n      swap2\n      swap1\n      pop\n      jump\t// out\n        /* \"#utility.yul\":1379:1559   */\n    tag_49:\n        /* \"#utility.yul\":1427:1504   */\n      0x4e487b7100000000000000000000000000000000000000000000000000000000\n        /* \"#utility.yul\":1424:1425   */\n      0x00\n        /* \"#utility.yul\":1417:1505   */\n      mstore\n        /* \"#utility.yul\":1524:1528   */\n      0x41\n        /* \"#utility.yul\":1521:1522   */\n      0x04\n        /* \"#utility.yul\":1514:1529   */\n      mstore\n        /* \"#utility.yul\":1548:1552   */\n      0x24\n        /* \"#utility.yul\":1545:1546   */\n      0x00\n        /* \"#utility.yul\":1538:1553   */\n      revert\n        /* \"#utility.yul\":1565:1846   */\n    tag_50:\n        /* \"#utility.yul\":1648:1675   */\n      tag_96\n        /* \"#utility.yul\":1670:1674   */\n      dup3\n        /* \"#utility.yul\":1648:1675   */\n      tag_48\n      jump\t// in\n    tag_96:\n        /* \"#utility.yul\":1640:1646   */\n      dup2\n        /* \"#utility.yul\":1636:1676   */\n      add\n        /* \"#utility.yul\":1778:1784   */\n      dup2\n        /* \"#utility.yul\":1766:1776   */\n      dup2\n        /* \"#utility.yul\":1763:1785   */\n      lt\n        /* \"#utility.yul\":1742:1760   */\n      0xffffffffffffffff\n        /* \"#utility.yul\":1730:1740   */\n      dup3\n        /* \"#utility.yul\":1727:1761   */\n      gt\n        /* \"#utility.yul\":1724:1786   */\n      or\n        /* \"#utility.yul\":1721:1809   */\n      iszero\n      tag_97\n      jumpi\n        /* \"#utility.yul\":1789:1807   */\n      tag_98\n      tag_49\n      jump\t// in\n    tag_98:\n        /* \"#utility.yul\":1721:1809   */\n    tag_97:\n        /* \"#utility.yul\":1829:1839   */\n      dup1\n        /* \"#utility.yul\":1825:1827   */\n      0x40\n        /* \"#utility.yul\":1818:1840   */\n      mstore\n        /* \"#utility.yul\":1608:1846   */\n      pop\n        /* \"#utility.yul\":1565:1846   */\n      pop\n      pop\n      jump\t// out\n        /* \"#utility.yul\":1852:1981   */\n    tag_51:\n        /* \"#utility.yul\":1886:1892   */\n      0x00\n        /* \"#utility.yul\":1913:1933   */\n      tag_100\n      tag_40\n      jump\t// in\n    tag_100:\n        /* \"#utility.yul\":1903:1933   */\n      swap1\n      pop\n        /* \"#utility.yul\":1942:1975   */\n      tag_101\n        /* \"#utility.yul\":1970:1974   */\n      dup3\n        /* \"#utility.yul\":1962:1968   */\n      dup3\n        /* \"#utility.yul\":1942:1975   */\n      tag_50\n      jump\t// in\n    tag_101:\n        /* \"#utility.yul\":1852:1981   */\n      swap2\n      swap1\n      pop\n      jump\t// out\n        /* \"#utility.yul\":1987:2295   */\n    tag_52:\n        /* \"#utility.yul\":2049:2053   */\n      0x00\n        /* \"#utility.yul\":2139:2157   */\n      0xffffffffffffffff\n        /* \"#utility.yul\":2131:2137   */\n      dup3\n        /* \"#utility.yul\":2128:2158   */\n      gt\n        /* \"#utility.yul\":2125:2181   */\n      iszero\n      tag_103\n      jumpi\n        /* \"#utility.yul\":2161:2179   */\n      tag_104\n      tag_49\n      jump\t// in\n    tag_104:\n        /* \"#utility.yul\":2125:2181   */\n    tag_103:\n        /* \"#utility.yul\":2199:2228   */\n      tag_105\n        /* \"#utility.yul\":2221:2227   */\n      dup3\n        /* \"#utility.yul\":2199:2228   */\n      tag_48\n      jump\t// in\n    tag_105:\n        /* \"#utility.yul\":2191:2228   */\n      swap1\n      pop\n        /* \"#utility.yul\":2283:2287   */\n      0x20\n        /* \"#utility.yul\":2277:2281   */\n      dup2\n        /* \"#utility.yul\":2273:2288   */\n      add\n        /* \"#utility.yul\":2265:2288   */\n      swap1\n      pop\n        /* \"#utility.yul\":1987:2295   */\n      swap2\n      swap1\n      pop\n      jump\t// out\n        /* \"#utility.yul\":2301:2447   */\n    tag_53:\n        /* \"#utility.yul\":2398:2404   */\n      dup3\n        /* \"#utility.yul\":2393:2396   */\n      dup2\n        /* \"#utility.yul\":2388:2391   */\n      dup4\n        /* \"#utility.yul\":2375:2405   */\n      calldatacopy\n        /* \"#utility.yul\":2439:2440   */\n      0x00\n        /* \"#utility.yul\":2430:2436   */\n      dup4\n        /* \"#utility.yul\":2425:2428   */\n      dup4\n        /* \"#utility.yul\":2421:2437   */\n      add\n        /* \"#utility.yul\":2414:2441   */\n      mstore\n        /* \"#utility.yul\":2301:2447   */\n      pop\n      pop\n      pop\n      jump\t// out\n        /* \"#utility.yul\":2453:2878   */\n    tag_54:\n        /* \"#utility.yul\":2531:2536   */\n      0x00\n        /* \"#utility.yul\":2556:2622   */\n      tag_108\n        /* \"#utility.yul\":2572:2621   */\n      tag_109\n        /* \"#utility.yul\":2614:2620   */\n      dup5\n        /* \"#utility.yul\":2572:2621   */\n      tag_52\n      jump\t// in\n    tag_109:\n        /* \"#utility.yul\":2556:2622   */\n      tag_51\n      jump\t// in\n    tag_108:\n        /* \"#utility.yul\":2547:2622   */\n      swap1\n      pop\n        /* \"#utility.yul\":2645:2651   */\n      dup3\n        /* \"#utility.yul\":2638:2643   */\n      dup2\n        /* \"#utility.yul\":2631:2652   */\n      mstore\n        /* \"#utility.yul\":2683:2687   */\n      0x20\n        /* \"#utility.yul\":2676:2681   */\n      dup2\n        /* \"#utility.yul\":2672:2688   */\n      add\n        /* \"#utility.yul\":2721:2724   */\n      dup5\n        /* \"#utility.yul\":2712:2718   */\n      dup5\n        /* \"#utility.yul\":2707:2710   */\n      dup5\n        /* \"#utility.yul\":2703:2719   */\n      add\n        /* \"#utility.yul\":2700:2725   */\n      gt\n        /* \"#utility.yul\":2697:2809   */\n      iszero\n      tag_110\n      jumpi\n        /* \"#utility.yul\":2728:2807   */\n      tag_111\n      tag_47\n      jump\t// in\n    tag_111:\n        /* \"#utility.yul\":2697:2809   */\n    tag_110:\n        /* \"#utility.yul\":2818:2872   */\n      tag_112\n        /* \"#utility.yul\":2865:2871   */\n      dup5\n        /* \"#utility.yul\":2860:2863   */\n      dup3\n        /* \"#utility.yul\":2855:2858   */\n      dup6\n        /* \"#utility.yul\":2818:2872   */\n      tag_53\n      jump\t// in\n    tag_112:\n        /* \"#utility.yul\":2537:2878   */\n      pop\n        /* \"#utility.yul\":2453:2878   */\n      swap4\n      swap3\n      pop\n      pop\n      pop\n      jump\t// out\n        /* \"#utility.yul\":2898:3238   */\n    tag_55:\n        /* \"#utility.yul\":2954:2959   */\n      0x00\n        /* \"#utility.yul\":3003:3006   */\n      dup3\n        /* \"#utility.yul\":2996:3000   */\n      0x1f\n        /* \"#utility.yul\":2988:2994   */\n      dup4\n        /* \"#utility.yul\":2984:3001   */\n      add\n        /* \"#utility.yul\":2980:3007   */\n      slt\n        /* \"#utility.yul\":2970:3092   */\n      tag_114\n      jumpi\n        /* \"#utility.yul\":3011:3090   */\n      tag_115\n      tag_46\n      jump\t// in\n    tag_115:\n        /* \"#utility.yul\":2970:3092   */\n    tag_114:\n        /* \"#utility.yul\":3128:3134   */\n      dup2\n        /* \"#utility.yul\":3115:3135   */\n      calldataload\n        /* \"#utility.yul\":3153:3232   */\n      tag_116\n        /* \"#utility.yul\":3228:3231   */\n      dup5\n        /* \"#utility.yul\":3220:3226   */\n      dup3\n        /* \"#utility.yul\":3213:3217   */\n      0x20\n        /* \"#utility.yul\":3205:3211   */\n      dup7\n        /* \"#utility.yul\":3201:3218   */\n      add\n        /* \"#utility.yul\":3153:3232   */\n      tag_54\n      jump\t// in\n    tag_116:\n        /* \"#utility.yul\":3144:3232   */\n      swap2\n      pop\n        /* \"#utility.yul\":2960:3238   */\n      pop\n        /* \"#utility.yul\":2898:3238   */\n      swap3\n      swap2\n      pop\n      pop\n      jump\t// out\n        /* \"#utility.yul\":3244:3753   */\n    tag_13:\n        /* \"#utility.yul\":3313:3319   */\n      0x00\n        /* \"#utility.yul\":3362:3364   */\n      0x20\n        /* \"#utility.yul\":3350:3359   */\n      dup3\n        /* \"#utility.yul\":3341:3348   */\n      dup5\n        /* \"#utility.yul\":3337:3360   */\n      sub\n        /* \"#utility.yul\":3333:3365   */\n      slt\n        /* \"#utility.yul\":3330:3449   */\n      iszero\n      tag_118\n      jumpi\n        /* \"#utility.yul\":3368:3447   */\n      tag_119\n      tag_41\n      jump\t// in\n    tag_119:\n        /* \"#utility.yul\":3330:3449   */\n    tag_118:\n        /* \"#utility.yul\":3516:3517   */\n      0x00\n        /* \"#utility.yul\":3505:3514   */\n      dup3\n        /* \"#utility.yul\":3501:3518   */\n      add\n        /* \"#utility.yul\":3488:3519   */\n      calldataload\n        /* \"#utility.yul\":3546:3564   */\n      0xffffffffffffffff\n        /* \"#utility.yul\":3538:3544   */\n      dup2\n        /* \"#utility.yul\":3535:3565   */\n      gt\n        /* \"#utility.yul\":3532:3649   */\n      iszero\n      tag_120\n      jumpi\n        /* \"#utility.yul\":3568:3647   */\n      tag_121\n      tag_42\n      jump\t// in\n    tag_121:\n        /* \"#utility.yul\":3532:3649   */\n    tag_120:\n        /* \"#utility.yul\":3673:3736   */\n      tag_122\n        /* \"#utility.yul\":3728:3735   */\n      dup5\n        /* \"#utility.yul\":3719:3725   */\n      dup3\n        /* \"#utility.yul\":3708:3717   */\n      dup6\n        /* \"#utility.yul\":3704:3726   */\n      add\n        /* \"#utility.yul\":3673:3736   */\n      tag_55\n      jump\t// in\n    tag_122:\n        /* \"#utility.yul\":3663:3736   */\n      swap2\n      pop\n        /* \"#utility.yul\":3459:3746   */\n      pop\n        /* \"#utility.yul\":3244:3753   */\n      swap3\n      swap2\n      pop\n      pop\n      jump\t// out\n        /* \"#utility.yul\":3759:3858   */\n    tag_56:\n        /* \"#utility.yul\":3811:3817   */\n      0x00\n        /* \"#utility.yul\":3845:3850   */\n      dup2\n        /* \"#utility.yul\":3839:3851   */\n      mload\n        /* \"#utility.yul\":3829:3851   */\n      swap1\n      pop\n        /* \"#utility.yul\":3759:3858   */\n      swap2\n      swap1\n      pop\n      jump\t// out\n        /* \"#utility.yul\":3864:4033   */\n    tag_57:\n        /* \"#utility.yul\":3948:3959   */\n      0x00\n        /* \"#utility.yul\":3982:3988   */\n      dup3\n        /* \"#utility.yul\":3977:3980   */\n      dup3\n        /* \"#utility.yul\":3970:3989   */\n      mstore\n        /* \"#utility.yul\":4022:4026   */\n      0x20\n        /* \"#utility.yul\":4017:4020   */\n      dup3\n        /* \"#utility.yul\":4013:4027   */\n      add\n        /* \"#utility.yul\":3998:4027   */\n      swap1\n      pop\n        /* \"#utility.yul\":3864:4033   */\n      swap3\n      swap2\n      pop\n      pop\n      jump\t// out\n        /* \"#utility.yul\":4039:4285   */\n    tag_58:\n        /* \"#utility.yul\":4120:4121   */\n      0x00\n        /* \"#utility.yul\":4130:4243   */\n    tag_126:\n        /* \"#utility.yul\":4144:4150   */\n      dup4\n        /* \"#utility.yul\":4141:4142   */\n      dup2\n        /* \"#utility.yul\":4138:4151   */\n      lt\n        /* \"#utility.yul\":4130:4243   */\n      iszero\n      tag_128\n      jumpi\n        /* \"#utility.yul\":4229:4230   */\n      dup1\n        /* \"#utility.yul\":4224:4227   */\n      dup3\n        /* \"#utility.yul\":4220:4231   */\n      add\n        /* \"#utility.yul\":4214:4232   */\n      mload\n        /* \"#utility.yul\":4210:4211   */\n      dup2\n        /* \"#utility.yul\":4205:4208   */\n      dup5\n        /* \"#utility.yul\":4201:4212   */\n      add\n        /* \"#utility.yul\":4194:4233   */\n      mstore\n        /* \"#utility.yul\":4166:4168   */\n      0x20\n        /* \"#utility.yul\":4163:4164   */\n      dup2\n        /* \"#utility.yul\":4159:4169   */\n      add\n        /* \"#utility.yul\":4154:4169   */\n      swap1\n      pop\n        /* \"#utility.yul\":4130:4243   */\n      jump(tag_126)\n    tag_128:\n        /* \"#utility.yul\":4277:4278   */\n      0x00\n        /* \"#utility.yul\":4268:4274   */\n      dup5\n        /* \"#utility.yul\":4263:4266   */\n      dup5\n        /* \"#utility.yul\":4259:4275   */\n      add\n        /* \"#utility.yul\":4252:4279   */\n      mstore\n        /* \"#utility.yul\":4101:4285   */\n      pop\n        /* \"#utility.yul\":4039:4285   */\n      pop\n      pop\n      pop\n      jump\t// out\n        /* \"#utility.yul\":4291:4668   */\n    tag_59:\n        /* \"#utility.yul\":4379:4382   */\n      0x00\n        /* \"#utility.yul\":4407:4446   */\n      tag_130\n        /* \"#utility.yul\":4440:4445   */\n      dup3\n        /* \"#utility.yul\":4407:4446   */\n      tag_56\n      jump\t// in\n    tag_130:\n        /* \"#utility.yul\":4462:4533   */\n      tag_131\n        /* \"#utility.yul\":4526:4532   */\n      dup2\n        /* \"#utility.yul\":4521:4524   */\n      dup6\n        /* \"#utility.yul\":4462:4533   */\n      tag_57\n      jump\t// in\n    tag_131:\n        /* \"#utility.yul\":4455:4533   */\n      swap4\n      pop\n        /* \"#utility.yul\":4542:4607   */\n      tag_132\n        /* \"#utility.yul\":4600:4606   */\n      dup2\n        /* \"#utility.yul\":4595:4598   */\n      dup6\n        /* \"#utility.yul\":4588:4592   */\n      0x20\n        /* \"#utility.yul\":4581:4586   */\n      dup7\n        /* \"#utility.yul\":4577:4593   */\n      add\n        /* \"#utility.yul\":4542:4607   */\n      tag_58\n      jump\t// in\n    tag_132:\n        /* \"#utility.yul\":4632:4661   */\n      tag_133\n        /* \"#utility.yul\":4654:4660   */\n      dup2\n        /* \"#utility.yul\":4632:4661   */\n      tag_48\n      jump\t// in\n    tag_133:\n        /* \"#utility.yul\":4627:4630   */\n      dup5\n        /* \"#utility.yul\":4623:4662   */\n      add\n        /* \"#utility.yul\":4616:4662   */\n      swap2\n      pop\n        /* \"#utility.yul\":4383:4668   */\n      pop\n        /* \"#utility.yul\":4291:4668   */\n      swap3\n      swap2\n      pop\n      pop\n      jump\t// out\n        /* \"#utility.yul\":4674:4987   */\n    tag_16:\n        /* \"#utility.yul\":4787:4791   */\n      0x00\n        /* \"#utility.yul\":4825:4827   */\n      0x20\n        /* \"#utility.yul\":4814:4823   */\n      dup3\n        /* \"#utility.yul\":4810:4828   */\n      add\n        /* \"#utility.yul\":4802:4828   */\n      swap1\n      pop\n        /* \"#utility.yul\":4874:4883   */\n      dup2\n        /* \"#utility.yul\":4868:4872   */\n      dup2\n        /* \"#utility.yul\":4864:4884   */\n      sub\n        /* \"#utility.yul\":4860:4861   */\n      0x00\n        /* \"#utility.yul\":4849:4858   */\n      dup4\n        /* \"#utility.yul\":4845:4862   */\n      add\n        /* \"#utility.yul\":4838:4885   */\n      mstore\n        /* \"#utility.yul\":4902:4980   */\n      tag_135\n        /* \"#utility.yul\":4975:4979   */\n      dup2\n        /* \"#utility.yul\":4966:4972   */\n      dup5\n        /* \"#utility.yul\":4902:4980   */\n      tag_59\n      jump\t// in\n    tag_135:\n        /* \"#utility.yul\":4894:4980   */\n      swap1\n      pop\n        /* \"#utility.yul\":4674:4987   */\n      swap3\n      swap2\n      pop\n      pop\n      jump\t// out\n        /* \"#utility.yul\":4993:5111   */\n    tag_60:\n        /* \"#utility.yul\":5080:5104   */\n      tag_137\n        /* \"#utility.yul\":5098:5103   */\n      dup2\n        /* \"#utility.yul\":5080:5104   */\n      tag_43\n      jump\t// in\n    tag_137:\n        /* \"#utility.yul\":5075:5078   */\n      dup3\n        /* \"#utility.yul\":5068:5105   */\n      mstore\n        /* \"#utility.yul\":4993:5111   */\n      pop\n      pop\n      jump\t// out\n        /* \"#utility.yul\":5117:5339   */\n    tag_23:\n        /* \"#utility.yul\":5210:5214   */\n      0x00\n        /* \"#utility.yul\":5248:5250   */\n      0x20\n        /* \"#utility.yul\":5237:5246   */\n      dup3\n        /* \"#utility.yul\":5233:5251   */\n      add\n        /* \"#utility.yul\":5225:5251   */\n      swap1\n      pop\n        /* \"#utility.yul\":5261:5332   */\n      tag_139\n        /* \"#utility.yul\":5329:5330   */\n      0x00\n        /* \"#utility.yul\":5318:5327   */\n      dup4\n        /* \"#utility.yul\":5314:5331   */\n      add\n        /* \"#utility.yul\":5305:5311   */\n      dup5\n        /* \"#utility.yul\":5261:5332   */\n      tag_60\n      jump\t// in\n    tag_139:\n        /* \"#utility.yul\":5117:5339   */\n      swap3\n      swap2\n      pop\n      pop\n      jump\t// out\n        /* \"#utility.yul\":5345:5525   */\n    tag_61:\n        /* \"#utility.yul\":5393:5470   */\n      0x4e487b7100000000000000000000000000000000000000000000000000000000\n        /* \"#utility.yul\":5390:5391   */\n      0x00\n        /* \"#utility.yul\":5383:5471   */\n      mstore\n        /* \"#utility.yul\":5490:5494   */\n      0x22\n        /* \"#utility.yul\":5487:5488   */\n      0x04\n        /* \"#utility.yul\":5480:5495   */\n      mstore\n        /* \"#utility.yul\":5514:5518   */\n      0x24\n        /* \"#utility.yul\":5511:5512   */\n      0x00\n        /* \"#utility.yul\":5504:5519   */\n      revert\n        /* \"#utility.yul\":5531:5851   */\n    tag_29:\n        /* \"#utility.yul\":5575:5581   */\n      0x00\n        /* \"#utility.yul\":5612:5613   */\n      0x02\n        /* \"#utility.yul\":5606:5610   */\n      dup3\n        /* \"#utility.yul\":5602:5614   */\n      div\n        /* \"#utility.yul\":5592:5614   */\n      swap1\n      pop\n        /* \"#utility.yul\":5659:5660   */\n      0x01\n        /* \"#utility.yul\":5653:5657   */\n      dup3\n        /* \"#utility.yul\":5649:5661   */\n      and\n        /* \"#utility.yul\":5680:5698   */\n      dup1\n        /* \"#utility.yul\":5670:5751   */\n      tag_142\n      jumpi\n        /* \"#utility.yul\":5736:5740   */\n      0x7f\n        /* \"#utility.yul\":5728:5734   */\n      dup3\n        /* \"#utility.yul\":5724:5741   */\n      and\n        /* \"#utility.yul\":5714:5741   */\n      swap2\n      pop\n        /* \"#utility.yul\":5670:5751   */\n    tag_142:\n        /* \"#utility.yul\":5798:5800   */\n      0x20\n        /* \"#utility.yul\":5790:5796   */\n      dup3\n        /* \"#utility.yul\":5787:5801   */\n      lt\n        /* \"#utility.yul\":5767:5785   */\n      dup2\n        /* \"#utility.yul\":5764:5802   */\n      sub\n        /* \"#utility.yul\":5761:5845   */\n      tag_143\n      jumpi\n        /* \"#utility.yul\":5817:5835   */\n      tag_144\n      tag_61\n      jump\t// in\n    tag_144:\n        /* \"#utility.yul\":5761:5845   */\n    tag_143:\n        /* \"#utility.yul\":5582:5851   */\n      pop\n        /* \"#utility.yul\":5531:5851   */\n      swap2\n      swap1\n      pop\n      jump\t// out\n        /* \"#utility.yul\":5857:5998   */\n    tag_62:\n        /* \"#utility.yul\":5906:5910   */\n      0x00\n        /* \"#utility.yul\":5929:5932   */\n      dup2\n        /* \"#utility.yul\":5921:5932   */\n      swap1\n      pop\n        /* \"#utility.yul\":5952:5955   */\n      dup2\n        /* \"#utility.yul\":5949:5950   */\n      0x00\n        /* \"#utility.yul\":5942:5956   */\n      mstore\n        /* \"#utility.yul\":5986:5990   */\n      0x20\n        /* \"#utility.yul\":5983:5984   */\n      0x00\n        /* \"#utility.yul\":5973:5991   */\n      keccak256\n        /* \"#utility.yul\":5965:5991   */\n      swap1\n      pop\n        /* \"#utility.yul\":5857:5998   */\n      swap2\n      swap1\n      pop\n      jump\t// out\n        /* \"#utility.yul\":6004:6097   */\n    tag_63:\n        /* \"#utility.yul\":6041:6047   */\n      0x00\n        /* \"#utility.yul\":6088:6090   */\n      0x20\n        /* \"#utility.yul\":6083:6085   */\n      0x1f\n        /* \"#utility.yul\":6076:6081   */\n      dup4\n        /* \"#utility.yul\":6072:6086   */\n      add\n        /* \"#utility.yul\":6068:6091   */\n      div\n        /* \"#utility.yul\":6058:6091   */\n      swap1\n      pop\n        /* \"#utility.yul\":6004:6097   */\n      swap2\n      swap1\n      pop\n      jump\t// out\n        /* \"#utility.yul\":6103:6210   */\n    tag_64:\n        /* \"#utility.yul\":6147:6155   */\n      0x00\n        /* \"#utility.yul\":6197:6202   */\n      dup3\n        /* \"#utility.yul\":6191:6195   */\n      dup3\n        /* \"#utility.yul\":6187:6203   */\n      shl\n        /* \"#utility.yul\":6166:6203   */\n      swap1\n      pop\n        /* \"#utility.yul\":6103:6210   */\n      swap3\n      swap2\n      pop\n      pop\n      jump\t// out\n        /* \"#utility.yul\":6216:6609   */\n    tag_65:\n        /* \"#utility.yul\":6285:6291   */\n      0x00\n        /* \"#utility.yul\":6335:6336   */\n      0x08\n        /* \"#utility.yul\":6323:6333   */\n      dup4\n        /* \"#utility.yul\":6319:6337   */\n      mul\n        /* \"#utility.yul\":6358:6455   */\n      tag_149\n        /* \"#utility.yul\":6388:6454   */\n      0xffffffffffffffffffffffffffffffffffffffffffffffffffffffffffffffff\n        /* \"#utility.yul\":6377:6386   */\n      dup3\n        /* \"#utility.yul\":6358:6455   */\n      tag_64\n      jump\t// in\n    tag_149:\n        /* \"#utility.yul\":6476:6515   */\n      tag_150\n        /* \"#utility.yul\":6506:6514   */\n      dup7\n        /* \"#utility.yul\":6495:6504   */\n      dup4\n        /* \"#utility.yul\":6476:6515   */\n      tag_64\n      jump\t// in\n    tag_150:\n        /* \"#utility.yul\":6464:6515   */\n      swap6\n      pop\n        /* \"#utility.yul\":6548:6552   */\n      dup1\n        /* \"#utility.yul\":6544:6553   */\n      not\n        /* \"#utility.yul\":6537:6542   */\n      dup5\n        /* \"#utility.yul\":6533:6554   */\n      and\n        /* \"#utility.yul\":6524:6554   */\n      swap4\n      pop\n        /* \"#utility.yul\":6597:6601   */\n      dup1\n        /* \"#utility.yul\":6587:6595   */\n      dup7\n        /* \"#utility.yul\":6583:6602   */\n      and\n        /* \"#utility.yul\":6576:6581   */\n      dup5\n        /* \"#utility.yul\":6573:6603   */\n      or\n        /* \"#utility.yul\":6563:6603   */\n      swap3\n      pop\n        /* \"#utility.yul\":6292:6609   */\n      pop\n      pop\n        /* \"#utility.yul\":6216:6609   */\n      swap4\n      swap3\n      pop\n      pop\n      pop\n      jump\t// out\n        /* \"#utility.yul\":6615:6675   */\n    tag_66:\n        /* \"#utility.yul\":6643:6646   */\n      0x00\n        /* \"#utility.yul\":6664:6669   */\n      dup2\n        /* \"#utility.yul\":6657:6669   */\n      swap1\n      pop\n        /* \"#utility.yul\":6615:6675   */\n      swap2\n      swap1\n      pop\n      jump\t// out\n        /* \"#utility.yul\":6681:6823   */\n    tag_67:\n        /* \"#utility.yul\":6731:6740   */\n      0x00\n        /* \"#utility.yul\":6764:6817   */\n      tag_153\n        /* \"#utility.yul\":6782:6816   */\n      tag_154\n        /* \"#utility.yul\":6791:6815   */\n      tag_155\n        /* \"#utility.yul\":6809:6814   */\n      dup5\n        /* \"#utility.yul\":6791:6815   */\n      tag_43\n      jump\t// in\n    tag_155:\n        /* \"#utility.yul\":6782:6816   */\n      tag_66\n      jump\t// in\n    tag_154:\n        /* \"#utility.yul\":6764:6817   */\n      tag_43\n      jump\t// in\n    tag_153:\n        /* \"#utility.yul\":6751:6817   */\n      swap1\n      pop\n        /* \"#utility.yul\":6681:6823   */\n      swap2\n      swap1\n      pop\n      jump\t// out\n        /* \"#utility.yul\":6829:6904   */\n    tag_68:\n        /* \"#utility.yul\":6872:6875   */\n      0x00\n        /* \"#utility.yul\":6893:6898   */\n      dup2\n        /* \"#utility.yul\":6886:6898   */\n      swap1\n      pop\n        /* \"#utility.yul\":6829:6904   */\n      swap2\n      swap1\n      pop\n      jump\t// out\n        /* \"#utility.yul\":6910:7179   */\n    tag_69:\n        /* \"#utility.yul\":7020:7059   */\n      tag_158\n        /* \"#utility.yul\":7051:7058   */\n      dup4\n        /* \"#utility.yul\":7020:7059   */\n      tag_67\n      jump\t// in\n    tag_158:\n        /* \"#utility.yul\":7081:7172   */\n      tag_159\n        /* \"#utility.yul\":7130:7171   */\n      tag_160\n        /* \"#utility.yul\":7154:7170   */\n      dup3\n        /* \"#utility.yul\":7130:7171   */\n      tag_68\n      jump\t// in\n    tag_160:\n        /* \"#utility.yul\":7122:7128   */\n      dup5\n        /* \"#utility.yul\":7115:7119   */\n      dup5\n        /* \"#utility.yul\":7109:7120   */\n      sload\n        /* \"#utility.yul\":7081:7172   */\n      tag_65\n      jump\t// in\n    tag_159:\n        /* \"#utility.yul\":7075:7079   */\n      dup3\n        /* \"#utility.yul\":7068:7173   */\n      sstore\n        /* \"#utility.yul\":6986:7179   */\n      pop\n        /* \"#utility.yul\":6910:7179   */\n      pop\n      pop\n      pop\n      jump\t// out\n        /* \"#utility.yul\":7185:7258   */\n    tag_70:\n        /* \"#utility.yul\":7230:7233   */\n      0x00\n        /* \"#utility.yul\":7185:7258   */\n      swap1\n      jump\t// out\n        /* \"#utility.yul\":7264:7453   */\n    tag_71:\n        /* \"#utility.yul\":7341:7373   */\n      tag_163\n      tag_70\n      jump\t// in\n    tag_163:\n        /* \"#utility.yul\":7382:7447   */\n      tag_164\n        /* \"#utility.yul\":7440:7446   */\n      dup2\n        /* \"#utility.yul\":7432:7438   */\n      dup5\n        /* \"#utility.yul\":7426:7430   */\n      dup5\n        /* \"#utility.yul\":7382:7447   */\n      tag_69\n      jump\t// in\n    tag_164:\n        /* \"#utility.yul\":7317:7453   */\n      pop\n        /* \"#utility.yul\":7264:7453   */\n      pop\n      pop\n      jump\t// out\n        /* \"#utility.yul\":7459:7645   */\n    tag_72:\n        /* \"#utility.yul\":7519:7639   */\n    tag_166:\n        /* \"#utility.yul\":7536:7539   */\n      dup2\n        /* \"#utility.yul\":7529:7534   */\n      dup2\n        /* \"#utility.yul\":7526:7540   */\n      lt\n        /* \"#utility.yul\":7519:7639   */\n      iszero\n      tag_168\n      jumpi\n        /* \"#utility.yul\":7590:7629   */\n      tag_169\n        /* \"#utility.yul\":7627:7628   */\n      0x00\n        /* \"#utility.yul\":7620:7625   */\n      dup3\n        /* \"#utility.yul\":7590:7629   */\n      tag_71\n      jump\t// in\n    tag_169:\n        /* \"#utility.yul\":7563:7564   */\n      0x01\n        /* \"#utility.yul\":7556:7561   */\n      dup2\n        /* \"#utility.yul\":7552:7565   */\n      add\n        /* \"#utility.yul\":7543:7565   */\n      swap1\n      pop\n        /* \"#utility.yul\":7519:7639   */\n      jump(tag_166)\n    tag_168:\n        /* \"#utility.yul\":7459:7645   */\n      pop\n      pop\n      jump\t// out\n        /* \"#utility.yul\":7651:8194   */\n    tag_73:\n        /* \"#utility.yul\":7752:7754   */\n      0x1f\n        /* \"#utility.yul\":7747:7750   */\n      dup3\n        /* \"#utility.yul\":7744:7755   */\n      gt\n        /* \"#utility.yul\":7741:8187   */\n      iszero\n      tag_171\n      jumpi\n        /* \"#utility.yul\":7786:7824   */\n      tag_172\n        /* \"#utility.yul\":7818:7823   */\n      dup2\n        /* \"#utility.yul\":7786:7824   */\n      tag_62\n      jump\t// in\n    tag_172:\n        /* \"#utility.yul\":7870:7899   */\n      tag_173\n        /* \"#utility.yul\":7888:7898   */\n      dup5\n        /* \"#utility.yul\":7870:7899   */\n      tag_63\n      jump\t// in\n    tag_173:\n        /* \"#utility.yul\":7860:7868   */\n      dup2\n        /* \"#utility.yul\":7856:7900   */\n      add\n        /* \"#utility.yul\":8053:8055   */\n      0x20\n        /* \"#utility.yul\":8041:8051   */\n      dup6\n        /* \"#utility.yul\":8038:8056   */\n      lt\n        /* \"#utility.yul\":8035:8084   */\n      iszero\n      tag_174\n      jumpi\n        /* \"#utility.yul\":8074:8082   */\n      dup2\n        /* \"#utility.yul\":8059:8082   */\n      swap1\n      pop\n        /* \"#utility.yul\":8035:8084   */\n    tag_174:\n        /* \"#utility.yul\":8097:8177   */\n      tag_175\n        /* \"#utility.yul\":8153:8175   */\n      tag_176\n        /* \"#utility.yul\":8171:8174   */\n      dup6\n        /* \"#utility.yul\":8153:8175   */\n      tag_63\n      jump\t// in\n    tag_176:\n        /* \"#utility.yul\":8143:8151   */\n      dup4\n        /* \"#utility.yul\":8139:8176   */\n      add\n        /* \"#utility.yul\":8126:8137   */\n      dup3\n        /* \"#utility.yul\":8097:8177   */\n      tag_72\n      jump\t// in\n    tag_175:\n        /* \"#utility.yul\":7756:8187   */\n      pop\n      pop\n        /* \"#utility.yul\":7741:8187   */\n    tag_171:\n        /* \"#utility.yul\":7651:8194   */\n      pop\n      pop\n      pop\n      jump\t// out\n        /* \"#utility.yul\":8200:8317   */\n    tag_74:\n        /* \"#utility.yul\":8254:8262   */\n      0x00\n        /* \"#utility.yul\":8304:8309   */\n      dup3\n        /* \"#utility.yul\":8298:8302   */\n      dup3\n        /* \"#utility.yul\":8294:8310   */\n      shr\n        /* \"#utility.yul\":8273:8310   */\n      swap1\n      pop\n        /* \"#utility.yul\":8200:8317   */\n      swap3\n      swap2\n      pop\n      pop\n      jump\t// out\n        /* \"#utility.yul\":8323:8492   */\n    tag_75:\n        /* \"#utility.yul\":8367:8373   */\n      0x00\n        /* \"#utility.yul\":8400:8451   */\n      tag_179\n        /* \"#utility.yul\":8448:8449   */\n      0x00\n        /* \"#utility.yul\":8444:8450   */\n      not\n        /* \"#utility.yul\":8436:8441   */\n      dup5\n        /* \"#utility.yul\":8433:8434   */\n      0x08\n        /* \"#utility.yul\":8429:8442   */\n      mul\n        /* \"#utility.yul\":8400:8451   */\n      tag_74\n      jump\t// in\n    tag_179:\n        /* \"#utility.yul\":8396:8452   */\n      not\n        /* \"#utility.yul\":8481:8485   */\n      dup1\n        /* \"#utility.yul\":8475:8479   */\n      dup4\n        /* \"#utility.yul\":8471:8486   */\n      and\n        /* \"#utility.yul\":8461:8486   */\n      swap2\n      pop\n        /* \"#utility.yul\":8374:8492   */\n      pop\n        /* \"#utility.yul\":8323:8492   */\n      swap3\n      swap2\n      pop\n      pop\n      jump\t// out\n        /* \"#utility.yul\":8497:8792   */\n    tag_76:\n        /* \"#utility.yul\":8573:8577   */\n      0x00\n        /* \"#utility.yul\":8719:8748   */\n      tag_181\n        /* \"#utility.yul\":8744:8747   */\n      dup4\n        /* \"#utility.yul\":8738:8742   */\n      dup4\n        /* \"#utility.yul\":8719:8748   */\n      tag_75\n      jump\t// in\n    tag_181:\n        /* \"#utility.yul\":8711:8748   */\n      swap2\n      pop\n        /* \"#utility.yul\":8781:8784   */\n      dup3\n        /* \"#utility.yul\":8778:8779   */\n      0x02\n        /* \"#utility.yul\":8774:8785   */\n      mul\n        /* \"#utility.yul\":8768:8772   */\n      dup3\n        /* \"#utility.yul\":8765:8786   */\n      or\n        /* \"#utility.yul\":8757:8786   */\n      swap1\n      pop\n        /* \"#utility.yul\":8497:8792   */\n      swap3\n      swap2\n      pop\n      pop\n      jump\t// out\n        /* \"#utility.yul\":8797:10192   */\n    tag_27:\n        /* \"#utility.yul\":8914:8951   */\n      tag_183\n        /* \"#utility.yul\":8947:8950   */\n      dup3\n        /* \"#utility.yul\":8914:8951   */\n      tag_56\n      jump\t// in\n    tag_183:\n        /* \"#utility.yul\":9016:9034   */\n      0xffffffffffffffff\n        /* \"#utility.yul\":9008:9014   */\n      dup2\n        /* \"#utility.yul\":9005:9035   */\n      gt\n        /* \"#utility.yul\":9002:9058   */\n      iszero\n      tag_184\n      jumpi\n        /* \"#utility.yul\":9038:9056   */\n      tag_185\n      tag_49\n      jump\t// in\n    tag_185:\n        /* \"#utility.yul\":9002:9058   */\n    tag_184:\n        /* \"#utility.yul\":9082:9120   */\n      tag_186\n        /* \"#utility.yul\":9114:9118   */\n      dup3\n        /* \"#utility.yul\":9108:9119   */\n      sload\n        /* \"#utility.yul\":9082:9120   */\n      tag_29\n      jump\t// in\n    tag_186:\n        /* \"#utility.yul\":9167:9234   */\n      tag_187\n        /* \"#utility.yul\":9227:9233   */\n      dup3\n        /* \"#utility.yul\":9219:9225   */\n      dup3\n        /* \"#utility.yul\":9213:9217   */\n      dup6\n        /* \"#utility.yul\":9167:9234   */\n      tag_73\n      jump\t// in\n    tag_187:\n        /* \"#utility.yul\":9261:9262   */\n      0x00\n        /* \"#utility.yul\":9285:9289   */\n      0x20\n        /* \"#utility.yul\":9272:9289   */\n      swap1\n      pop\n        /* \"#utility.yul\":9317:9319   */\n      0x1f\n        /* \"#utility.yul\":9309:9315   */\n      dup4\n        /* \"#utility.yul\":9306:9320   */\n      gt\n        /* \"#utility.yul\":9334:9335   */\n      0x01\n        /* \"#utility.yul\":9329:9947   */\n      dup2\n      eq\n      tag_189\n      jumpi\n        /* \"#utility.yul\":9991:9992   */\n      0x00\n        /* \"#utility.yul\":10008:10014   */\n      dup5\n        /* \"#utility.yul\":10005:10082   */\n      iszero\n      tag_190\n      jumpi\n        /* \"#utility.yul\":10057:10066   */\n      dup3\n        /* \"#utility.yul\":10052:10055   */\n      dup8\n        /* \"#utility.yul\":10048:10067   */\n      add\n        /* \"#utility.yul\":10042:10068   */\n      mload\n        /* \"#utility.yul\":10033:10068   */\n      swap1\n      pop\n        /* \"#utility.yul\":10005:10082   */\n    tag_190:\n        /* \"#utility.yul\":10108:10175   */\n      tag_191\n        /* \"#utility.yul\":10168:10174   */\n      dup6\n        /* \"#utility.yul\":10161:10166   */\n      dup3\n        /* \"#utility.yul\":10108:10175   */\n      tag_76\n      jump\t// in\n    tag_191:\n        /* \"#utility.yul\":10102:10106   */\n      dup7\n        /* \"#utility.yul\":10095:10176   */\n      sstore\n        /* \"#utility.yul\":9964:10186   */\n      pop\n        /* \"#utility.yul\":9299:10186   */\n      jump(tag_188)\n        /* \"#utility.yul\":9329:9947   */\n    tag_189:\n        /* \"#utility.yul\":9381:9385   */\n      0x1f\n        /* \"#utility.yul\":9377:9386   */\n      not\n        /* \"#utility.yul\":9369:9375   */\n      dup5\n        /* \"#utility.yul\":9365:9387   */\n      and\n        /* \"#utility.yul\":9415:9452   */\n      tag_192\n        /* \"#utility.yul\":9447:9451   */\n      dup7\n        /* \"#utility.yul\":9415:9452   */\n      tag_62\n      jump\t// in\n    tag_192:\n        /* \"#utility.yul\":9474:9475   */\n      0x00\n        /* \"#utility.yul\":9488:9696   */\n    tag_193:\n        /* \"#utility.yul\":9502:9509   */\n      dup3\n        /* \"#utility.yul\":9499:9500   */\n      dup2\n        /* \"#utility.yul\":9496:9510   */\n      lt\n        /* \"#utility.yul\":9488:9696   */\n      iszero\n      tag_195\n      jumpi\n        /* \"#utility.yul\":9581:9590   */\n      dup5\n        /* \"#utility.yul\":9576:9579   */\n      dup10\n        /* \"#utility.yul\":9572:9591   */\n      add\n        /* \"#utility.yul\":9566:9592   */\n      mload\n        /* \"#utility.yul\":9558:9564   */\n      dup3\n        /* \"#utility.yul\":9551:9593   */\n      sstore\n        /* \"#utility.yul\":9632:9633   */\n      0x01\n        /* \"#utility.yul\":9624:9630   */\n      dup3\n        /* \"#utility.yul\":9620:9634   */\n      add\n        /* \"#utility.yul\":9610:9634   */\n      swap2\n      pop\n        /* \"#utility.yul\":9679:9681   */\n      0x20\n        /* \"#utility.yul\":9668:9677   */\n      dup6\n        /* \"#utility.yul\":9664:9682   */\n      add\n        /* \"#utility.yul\":9651:9682   */\n      swap5\n      pop\n        /* \"#utility.yul\":9525:9529   */\n      0x20\n        /* \"#utility.yul\":9522:9523   */\n      dup2\n        /* \"#utility.yul\":9518:9530   */\n      add\n        /* \"#utility.yul\":9513:9530   */\n      swap1\n      pop\n        /* \"#utility.yul\":9488:9696   */\n      jump(tag_193)\n    tag_195:\n        /* \"#utility.yul\":9724:9730   */\n      dup7\n        /* \"#utility.yul\":9715:9722   */\n      dup4\n        /* \"#utility.yul\":9712:9731   */\n      lt\n        /* \"#utility.yul\":9709:9888   */\n      iszero\n      tag_196\n      jumpi\n        /* \"#utility.yul\":9782:9791   */\n      dup5\n        /* \"#utility.yul\":9777:9780   */\n      dup10\n        /* \"#utility.yul\":9773:9792   */\n      add\n        /* \"#utility.yul\":9767:9793   */\n      mload\n        /* \"#utility.yul\":9825:9873   */\n      tag_197\n        /* \"#utility.yul\":9867:9871   */\n      0x1f\n        /* \"#utility.yul\":9859:9865   */\n      dup10\n        /* \"#utility.yul\":9855:9872   */\n      and\n        /* \"#utility.yul\":9844:9853   */\n      dup3\n        /* \"#utility.yul\":9825:9873   */\n      tag_75\n      jump\t// in\n    tag_197:\n        /* \"#utility.yul\":9817:9823   */\n      dup4\n        /* \"#utility.yul\":9810:9874   */\n      sstore\n        /* \"#utility.yul\":9732:9888   */\n      pop\n        /* \"#utility.yul\":9709:9888   */\n    tag_196:\n        /* \"#utility.yul\":9934:9935   */\n      0x01\n        /* \"#utility.yul\":9930:9931   */\n      0x02\n        /* \"#utility.yul\":9922:9928   */\n      dup9\n        /* \"#utility.yul\":9918:9932   */\n      mul\n        /* \"#utility.yul\":9914:9936   */\n      add\n        /* \"#utility.yul\":9908:9912   */\n      dup9\n        /* \"#utility.yul\":9901:9937   */\n      sstore\n        /* \"#utility.yul\":9336:9947   */\n      pop\n      pop\n      pop\n        /* \"#utility.yul\":9299:10186   */\n    tag_188:\n      pop\n        /* \"#utility.yul\":8889:10192   */\n      pop\n      pop\n      pop\n        /* \"#utility.yul\":8797:10192   */\n      pop\n      pop\n      jump\t// out\n\n    auxdata: 0xa264697066735822122017e97cf243729162af10baeee6d08a03051b01d12979274838be3fd20d3eac2364736f6c63430008120033\n}\n",
				"bytecode": {
					"linkReferences": {},
					"object": "6080604052600c6000553480156200001657600080fd5b506040518060400160405280600981526020017f68656c6c6f204554480000000000000000000000000000000000000000000000815250600190816200005d9190620002de565b50620003c5565b600081519050919050565b7f4e487b7100000000000000000000000000000000000000000000000000000000600052604160045260246000fd5b7f4e487b7100000000000000000000000000000000000000000000000000000000600052602260045260246000fd5b60006002820490506001821680620000e657607f821691505b602082108103620000fc57620000fb6200009e565b5b50919050565b60008190508160005260206000209050919050565b60006020601f8301049050919050565b600082821b905092915050565b600060088302620001667fffffffffffffffffffffffffffffffffffffffffffffffffffffffffffffffff8262000127565b62000172868362000127565b95508019841693508086168417925050509392505050565b6000819050919050565b6000819050919050565b6000620001bf620001b9620001b3846200018a565b62000194565b6200018a565b9050919050565b6000819050919050565b620001db836200019e565b620001f3620001ea82620001c6565b84845462000134565b825550505050565b600090565b6200020a620001fb565b62000217818484620001d0565b505050565b5b818110156200023f576200023360008262000200565b6001810190506200021d565b5050565b601f8211156200028e57620002588162000102565b620002638462000117565b8101602085101562000273578190505b6200028b620002828562000117565b8301826200021c565b50505b505050565b600082821c905092915050565b6000620002b36000198460080262000293565b1980831691505092915050565b6000620002ce8383620002a0565b9150826002028217905092915050565b620002e98262000064565b67ffffffffffffffff8111156200030557620003046200006f565b5b620003118254620000cd565b6200031e82828562000243565b600060209050601f83116001811462000356576000841562000341578287015190505b6200034d8582620002c0565b865550620003bd565b601f198416620003668662000102565b60005b82811015620003905784890151825560018201915060208501945060208101905062000369565b86831015620003b05784890151620003ac601f891682620002a0565b8355505b6001600288020188555050505b505050505050565b61080480620003d56000396000f3fe608060405234801561001057600080fd5b506004361061004c5760003560e01c806342d21ef7146100515780634ed3885e1461006d5780636d4ce63c1461009d578063975057e7146100bb575b600080fd5b61006b60048036038101906100669190610269565b6100d9565b005b610087600480360381019061008291906103dc565b6100e3565b60405161009491906104a4565b60405180910390f35b6100a5610187565b6040516100b291906104a4565b60405180910390f35b6100c3610219565b6040516100d091906104d5565b60405180910390f35b8060008190555050565b606081600190816100f491906106fc565b50600180546101029061051f565b80601f016020809104026020016040519081016040528092919081815260200182805461012e9061051f565b801561017b5780601f106101505761010080835404028352916020019161017b565b820191906000526020600020905b81548152906001019060200180831161015e57829003601f168201915b50505050509050919050565b6060600180546101969061051f565b80601f01602080910402602001604051908101604052809291908181526020018280546101c29061051f565b801561020f5780601f106101e45761010080835404028352916020019161020f565b820191906000526020600020905b8154815290600101906020018083116101f257829003601f168201915b5050505050905090565b60005481565b6000604051905090565b600080fd5b600080fd5b6000819050919050565b61024681610233565b811461025157600080fd5b50565b6000813590506102638161023d565b92915050565b60006020828403121561027f5761027e610229565b5b600061028d84828501610254565b91505092915050565b600080fd5b600080fd5b6000601f19601f8301169050919050565b7f4e487b7100000000000000000000000000000000000000000000000000000000600052604160045260246000fd5b6102e9826102a0565b810181811067ffffffffffffffff82111715610308576103076102b1565b5b80604052505050565b600061031b61021f565b905061032782826102e0565b919050565b600067ffffffffffffffff821115610347576103466102b1565b5b610350826102a0565b9050602081019050919050565b82818337600083830152505050565b600061037f61037a8461032c565b610311565b90508281526020810184848401111561039b5761039a61029b565b5b6103a684828561035d565b509392505050565b600082601f8301126103c3576103c2610296565b5b81356103d384826020860161036c565b91505092915050565b6000602082840312156103f2576103f1610229565b5b600082013567ffffffffffffffff8111156104105761040f61022e565b5b61041c848285016103ae565b91505092915050565b600081519050919050565b600082825260208201905092915050565b60005b8381101561045f578082015181840152602081019050610444565b60008484015250505050565b600061047682610425565b6104808185610430565b9350610490818560208601610441565b610499816102a0565b840191505092915050565b600060208201905081810360008301526104be818461046b565b905092915050565b6104cf81610233565b82525050565b60006020820190506104ea60008301846104c6565b92915050565b7f4e487b7100000000000000000000000000000000000000000000000000000000600052602260045260246000fd5b6000600282049050600182168061053757607f821691505b60208210810361054a576105496104f0565b5b50919050565b60008190508160005260206000209050919050565b60006020601f8301049050919050565b600082821b905092915050565b6000600883026105b27fffffffffffffffffffffffffffffffffffffffffffffffffffffffffffffffff82610575565b6105bc8683610575565b95508019841693508086168417925050509392505050565b6000819050919050565b60006105f96105f46105ef84610233565b6105d4565b610233565b9050919050565b6000819050919050565b610613836105de565b61062761061f82610600565b848454610582565b825550505050565b600090565b61063c61062f565b61064781848461060a565b505050565b5b8181101561066b57610660600082610634565b60018101905061064d565b5050565b601f8211156106b05761068181610550565b61068a84610565565b81016020851015610699578190505b6106ad6106a585610565565b83018261064c565b50505b505050565b600082821c905092915050565b60006106d3600019846008026106b5565b1980831691505092915050565b60006106ec83836106c2565b9150826002028217905092915050565b61070582610425565b67ffffffffffffffff81111561071e5761071d6102b1565b5b610728825461051f565b61073382828561066f565b600060209050601f8311600181146107665760008415610754578287015190505b61075e85826106e0565b8655506107c6565b601f19841661077486610550565b60005b8281101561079c57848901518255600182019150602085019450602081019050610777565b868310156107b957848901516107b5601f8916826106c2565b8355505b6001600288020188555050505b50505050505056fea264697066735822122017e97cf243729162af10baeee6d08a03051b01d12979274838be3fd20d3eac2364736f6c63430008120033",
					"opcodes": "PUSH1 0x80 PUSH1 0x40 MSTORE PUSH1 0xC PUSH1 0x0 SSTORE CALLVALUE DUP1 ISZERO PUSH3 0x16 JUMPI PUSH1 0x0 DUP1 REVERT JUMPDEST POP PUSH1 0x40 MLOAD DUP1 PUSH1 0x40 ADD PUSH1 0x40 MSTORE DUP1 PUSH1 0x9 DUP2 MSTORE PUSH1 0x20 ADD PUSH32 0x68656C6C6F204554480000000000000000000000000000000000000000000000 DUP2 MSTORE POP PUSH1 0x1 SWAP1 DUP2 PUSH3 0x5D SWAP2 SWAP1 PUSH3 0x2DE JUMP JUMPDEST POP PUSH3 0x3C5 JUMP JUMPDEST PUSH1 0x0 DUP2 MLOAD SWAP1 POP SWAP2 SWAP1 POP JUMP JUMPDEST PUSH32 0x4E487B7100000000000000000000000000000000000000000000000000000000 PUSH1 0x0 MSTORE PUSH1 0x41 PUSH1 0x4 MSTORE PUSH1 0x24 PUSH1 0x0 REVERT JUMPDEST PUSH32 0x4E487B7100000000000000000000000000000000000000000000000000000000 PUSH1 0x0 MSTORE PUSH1 0x22 PUSH1 0x4 MSTORE PUSH1 0x24 PUSH1 0x0 REVERT JUMPDEST PUSH1 0x0 PUSH1 0x2 DUP3 DIV SWAP1 POP PUSH1 0x1 DUP3 AND DUP1 PUSH3 0xE6 JUMPI PUSH1 0x7F DUP3 AND SWAP2 POP JUMPDEST PUSH1 0x20 DUP3 LT DUP2 SUB PUSH3 0xFC JUMPI PUSH3 0xFB PUSH3 0x9E JUMP JUMPDEST JUMPDEST POP SWAP2 SWAP1 POP JUMP JUMPDEST PUSH1 0x0 DUP2 SWAP1 POP DUP2 PUSH1 0x0 MSTORE PUSH1 0x20 PUSH1 0x0 KECCAK256 SWAP1 POP SWAP2 SWAP1 POP JUMP JUMPDEST PUSH1 0x0 PUSH1 0x20 PUSH1 0x1F DUP4 ADD DIV SWAP1 POP SWAP2 SWAP1 POP JUMP JUMPDEST PUSH1 0x0 DUP3 DUP3 SHL SWAP1 POP SWAP3 SWAP2 POP POP JUMP JUMPDEST PUSH1 0x0 PUSH1 0x8 DUP4 MUL PUSH3 0x166 PUSH32 0xFFFFFFFFFFFFFFFFFFFFFFFFFFFFFFFFFFFFFFFFFFFFFFFFFFFFFFFFFFFFFFFF DUP3 PUSH3 0x127 JUMP JUMPDEST PUSH3 0x172 DUP7 DUP4 PUSH3 0x127 JUMP JUMPDEST SWAP6 POP DUP1 NOT DUP5 AND SWAP4 POP DUP1 DUP7 AND DUP5 OR SWAP3 POP POP POP SWAP4 SWAP3 POP POP POP JUMP JUMPDEST PUSH1 0x0 DUP2 SWAP1 POP SWAP2 SWAP1 POP JUMP JUMPDEST PUSH1 0x0 DUP2 SWAP1 POP SWAP2 SWAP1 POP JUMP JUMPDEST PUSH1 0x0 PUSH3 0x1BF PUSH3 0x1B9 PUSH3 0x1B3 DUP5 PUSH3 0x18A JUMP JUMPDEST PUSH3 0x194 JUMP JUMPDEST PUSH3 0x18A JUMP JUMPDEST SWAP1 POP SWAP2 SWAP1 POP JUMP JUMPDEST PUSH1 0x0 DUP2 SWAP1 POP SWAP2 SWAP1 POP JUMP JUMPDEST PUSH3 0x1DB DUP4 PUSH3 0x19E JUMP JUMPDEST PUSH3 0x1F3 PUSH3 0x1EA DUP3 PUSH3 0x1C6 JUMP JUMPDEST DUP5 DUP5 SLOAD PUSH3 0x134 JUMP JUMPDEST DUP3 SSTORE POP POP POP POP JUMP JUMPDEST PUSH1 0x0 SWAP1 JUMP JUMPDEST PUSH3 0x20A PUSH3 0x1FB JUMP JUMPDEST PUSH3 0x217 DUP2 DUP5 DUP5 PUSH3 0x1D0 JUMP JUMPDEST POP POP POP JUMP JUMPDEST JUMPDEST DUP2 DUP2 LT ISZERO PUSH3 0x23F JUMPI PUSH3 0x233 PUSH1 0x0 DUP3 PUSH3 0x200 JUMP JUMPDEST PUSH1 0x1 DUP2 ADD SWAP1 POP PUSH3 0x21D JUMP JUMPDEST POP POP JUMP JUMPDEST PUSH1 0x1F DUP3 GT ISZERO PUSH3 0x28E JUMPI PUSH3 0x258 DUP2 PUSH3 0x102 JUMP JUMPDEST PUSH3 0x263 DUP5 PUSH3 0x117 JUMP JUMPDEST DUP2 ADD PUSH1 0x20 DUP6 LT ISZERO PUSH3 0x273 JUMPI DUP2 SWAP1 POP JUMPDEST PUSH3 0x28B PUSH3 0x282 DUP6 PUSH3 0x117 JUMP JUMPDEST DUP4 ADD DUP3 PUSH3 0x21C JUMP JUMPDEST POP POP JUMPDEST POP POP POP JUMP JUMPDEST PUSH1 0x0 DUP3 DUP3 SHR SWAP1 POP SWAP3 SWAP2 POP POP JUMP JUMPDEST PUSH1 0x0 PUSH3 0x2B3 PUSH1 0x0 NOT DUP5 PUSH1 0x8 MUL PUSH3 0x293 JUMP JUMPDEST NOT DUP1 DUP4 AND SWAP2 POP POP SWAP3 SWAP2 POP POP JUMP JUMPDEST PUSH1 0x0 PUSH3 0x2CE DUP4 DUP4 PUSH3 0x2A0 JUMP JUMPDEST SWAP2 POP DUP3 PUSH1 0x2 MUL DUP3 OR SWAP1 POP SWAP3 SWAP2 POP POP JUMP JUMPDEST PUSH3 0x2E9 DUP3 PUSH3 0x64 JUMP JUMPDEST PUSH8 0xFFFFFFFFFFFFFFFF DUP2 GT ISZERO PUSH3 0x305 JUMPI PUSH3 0x304 PUSH3 0x6F JUMP JUMPDEST JUMPDEST PUSH3 0x311 DUP3 SLOAD PUSH3 0xCD JUMP JUMPDEST PUSH3 0x31E DUP3 DUP3 DUP6 PUSH3 0x243 JUMP JUMPDEST PUSH1 0x0 PUSH1 0x20 SWAP1 POP PUSH1 0x1F DUP4 GT PUSH1 0x1 DUP2 EQ PUSH3 0x356 JUMPI PUSH1 0x0 DUP5 ISZERO PUSH3 0x341 JUMPI DUP3 DUP8 ADD MLOAD SWAP1 POP JUMPDEST PUSH3 0x34D DUP6 DUP3 PUSH3 0x2C0 JUMP JUMPDEST DUP7 SSTORE POP PUSH3 0x3BD JUMP JUMPDEST PUSH1 0x1F NOT DUP5 AND PUSH3 0x366 DUP7 PUSH3 0x102 JUMP JUMPDEST PUSH1 0x0 JUMPDEST DUP3 DUP2 LT ISZERO PUSH3 0x390 JUMPI DUP5 DUP10 ADD MLOAD DUP3 SSTORE PUSH1 0x1 DUP3 ADD SWAP2 POP PUSH1 0x20 DUP6 ADD SWAP5 POP PUSH1 0x20 DUP2 ADD SWAP1 POP PUSH3 0x369 JUMP JUMPDEST DUP7 DUP4 LT ISZERO PUSH3 0x3B0 JUMPI DUP5 DUP10 ADD MLOAD PUSH3 0x3AC PUSH1 0x1F DUP10 AND DUP3 PUSH3 0x2A0 JUMP JUMPDEST DUP4 SSTORE POP JUMPDEST PUSH1 0x1 PUSH1 0x2 DUP9 MUL ADD DUP9 SSTORE POP POP POP JUMPDEST POP POP POP POP POP POP JUMP JUMPDEST PUSH2 0x804 DUP1 PUSH3 0x3D5 PUSH1 0x0 CODECOPY PUSH1 0x0 RETURN INVALID PUSH1 0x80 PUSH1 0x40 MSTORE CALLVALUE DUP1 ISZERO PUSH2 0x10 JUMPI PUSH1 0x0 DUP1 REVERT JUMPDEST POP PUSH1 0x4 CALLDATASIZE LT PUSH2 0x4C JUMPI PUSH1 0x0 CALLDATALOAD PUSH1 0xE0 SHR DUP1 PUSH4 0x42D21EF7 EQ PUSH2 0x51 JUMPI DUP1 PUSH4 0x4ED3885E EQ PUSH2 0x6D JUMPI DUP1 PUSH4 0x6D4CE63C EQ PUSH2 0x9D JUMPI DUP1 PUSH4 0x975057E7 EQ PUSH2 0xBB JUMPI JUMPDEST PUSH1 0x0 DUP1 REVERT JUMPDEST PUSH2 0x6B PUSH1 0x4 DUP1 CALLDATASIZE SUB DUP2 ADD SWAP1 PUSH2 0x66 SWAP2 SWAP1 PUSH2 0x269 JUMP JUMPDEST PUSH2 0xD9 JUMP JUMPDEST STOP JUMPDEST PUSH2 0x87 PUSH1 0x4 DUP1 CALLDATASIZE SUB DUP2 ADD SWAP1 PUSH2 0x82 SWAP2 SWAP1 PUSH2 0x3DC JUMP JUMPDEST PUSH2 0xE3 JUMP JUMPDEST PUSH1 0x40 MLOAD PUSH2 0x94 SWAP2 SWAP1 PUSH2 0x4A4 JUMP JUMPDEST PUSH1 0x40 MLOAD DUP1 SWAP2 SUB SWAP1 RETURN JUMPDEST PUSH2 0xA5 PUSH2 0x187 JUMP JUMPDEST PUSH1 0x40 MLOAD PUSH2 0xB2 SWAP2 SWAP1 PUSH2 0x4A4 JUMP JUMPDEST PUSH1 0x40 MLOAD DUP1 SWAP2 SUB SWAP1 RETURN JUMPDEST PUSH2 0xC3 PUSH2 0x219 JUMP JUMPDEST PUSH1 0x40 MLOAD PUSH2 0xD0 SWAP2 SWAP1 PUSH2 0x4D5 JUMP JUMPDEST PUSH1 0x40 MLOAD DUP1 SWAP2 SUB SWAP1 RETURN JUMPDEST DUP1 PUSH1 0x0 DUP2 SWAP1 SSTORE POP POP JUMP JUMPDEST PUSH1 0x60 DUP2 PUSH1 0x1 SWAP1 DUP2 PUSH2 0xF4 SWAP2 SWAP1 PUSH2 0x6FC JUMP JUMPDEST POP PUSH1 0x1 DUP1 SLOAD PUSH2 0x102 SWAP1 PUSH2 0x51F JUMP JUMPDEST DUP1 PUSH1 0x1F ADD PUSH1 0x20 DUP1 SWAP2 DIV MUL PUSH1 0x20 ADD PUSH1 0x40 MLOAD SWAP1 DUP2 ADD PUSH1 0x40 MSTORE DUP1 SWAP3 SWAP2 SWAP1 DUP2 DUP2 MSTORE PUSH1 0x20 ADD DUP3 DUP1 SLOAD PUSH2 0x12E SWAP1 PUSH2 0x51F JUMP JUMPDEST DUP1 ISZERO PUSH2 0x17B JUMPI DUP1 PUSH1 0x1F LT PUSH2 0x150 JUMPI PUSH2 0x100 DUP1 DUP4 SLOAD DIV MUL DUP4 MSTORE SWAP2 PUSH1 0x20 ADD SWAP2 PUSH2 0x17B JUMP JUMPDEST DUP3 ADD SWAP2 SWAP1 PUSH1 0x0 MSTORE PUSH1 0x20 PUSH1 0x0 KECCAK256 SWAP1 JUMPDEST DUP2 SLOAD DUP2 MSTORE SWAP1 PUSH1 0x1 ADD SWAP1 PUSH1 0x20 ADD DUP1 DUP4 GT PUSH2 0x15E JUMPI DUP3 SWAP1 SUB PUSH1 0x1F AND DUP3 ADD SWAP2 JUMPDEST POP POP POP POP POP SWAP1 POP SWAP2 SWAP1 POP JUMP JUMPDEST PUSH1 0x60 PUSH1 0x1 DUP1 SLOAD PUSH2 0x196 SWAP1 PUSH2 0x51F JUMP JUMPDEST DUP1 PUSH1 0x1F ADD PUSH1 0x20 DUP1 SWAP2 DIV MUL PUSH1 0x20 ADD PUSH1 0x40 MLOAD SWAP1 DUP2 ADD PUSH1 0x40 MSTORE DUP1 SWAP3 SWAP2 SWAP1 DUP2 DUP2 MSTORE PUSH1 0x20 ADD DUP3 DUP1 SLOAD PUSH2 0x1C2 SWAP1 PUSH2 0x51F JUMP JUMPDEST DUP1 ISZERO PUSH2 0x20F JUMPI DUP1 PUSH1 0x1F LT PUSH2 0x1E4 JUMPI PUSH2 0x100 DUP1 DUP4 SLOAD DIV MUL DUP4 MSTORE SWAP2 PUSH1 0x20 ADD SWAP2 PUSH2 0x20F JUMP JUMPDEST DUP3 ADD SWAP2 SWAP1 PUSH1 0x0 MSTORE PUSH1 0x20 PUSH1 0x0 KECCAK256 SWAP1 JUMPDEST DUP2 SLOAD DUP2 MSTORE SWAP1 PUSH1 0x1 ADD SWAP1 PUSH1 0x20 ADD DUP1 DUP4 GT PUSH2 0x1F2 JUMPI DUP3 SWAP1 SUB PUSH1 0x1F AND DUP3 ADD SWAP2 JUMPDEST POP POP POP POP POP SWAP1 POP SWAP1 JUMP JUMPDEST PUSH1 0x0 SLOAD DUP2 JUMP JUMPDEST PUSH1 0x0 PUSH1 0x40 MLOAD SWAP1 POP SWAP1 JUMP JUMPDEST PUSH1 0x0 DUP1 REVERT JUMPDEST PUSH1 0x0 DUP1 REVERT JUMPDEST PUSH1 0x0 DUP2 SWAP1 POP SWAP2 SWAP1 POP JUMP JUMPDEST PUSH2 0x246 DUP2 PUSH2 0x233 JUMP JUMPDEST DUP2 EQ PUSH2 0x251 JUMPI PUSH1 0x0 DUP1 REVERT JUMPDEST POP JUMP JUMPDEST PUSH1 0x0 DUP2 CALLDATALOAD SWAP1 POP PUSH2 0x263 DUP2 PUSH2 0x23D JUMP JUMPDEST SWAP3 SWAP2 POP POP JUMP JUMPDEST PUSH1 0x0 PUSH1 0x20 DUP3 DUP5 SUB SLT ISZERO PUSH2 0x27F JUMPI PUSH2 0x27E PUSH2 0x229 JUMP JUMPDEST JUMPDEST PUSH1 0x0 PUSH2 0x28D DUP5 DUP3 DUP6 ADD PUSH2 0x254 JUMP JUMPDEST SWAP2 POP POP SWAP3 SWAP2 POP POP JUMP JUMPDEST PUSH1 0x0 DUP1 REVERT JUMPDEST PUSH1 0x0 DUP1 REVERT JUMPDEST PUSH1 0x0 PUSH1 0x1F NOT PUSH1 0x1F DUP4 ADD AND SWAP1 POP SWAP2 SWAP1 POP JUMP JUMPDEST PUSH32 0x4E487B7100000000000000000000000000000000000000000000000000000000 PUSH1 0x0 MSTORE PUSH1 0x41 PUSH1 0x4 MSTORE PUSH1 0x24 PUSH1 0x0 REVERT JUMPDEST PUSH2 0x2E9 DUP3 PUSH2 0x2A0 JUMP JUMPDEST DUP2 ADD DUP2 DUP2 LT PUSH8 0xFFFFFFFFFFFFFFFF DUP3 GT OR ISZERO PUSH2 0x308 JUMPI PUSH2 0x307 PUSH2 0x2B1 JUMP JUMPDEST JUMPDEST DUP1 PUSH1 0x40 MSTORE POP POP POP JUMP JUMPDEST PUSH1 0x0 PUSH2 0x31B PUSH2 0x21F JUMP JUMPDEST SWAP1 POP PUSH2 0x327 DUP3 DUP3 PUSH2 0x2E0 JUMP JUMPDEST SWAP2 SWAP1 POP JUMP JUMPDEST PUSH1 0x0 PUSH8 0xFFFFFFFFFFFFFFFF DUP3 GT ISZERO PUSH2 0x347 JUMPI PUSH2 0x346 PUSH2 0x2B1 JUMP JUMPDEST JUMPDEST PUSH2 0x350 DUP3 PUSH2 0x2A0 JUMP JUMPDEST SWAP1 POP PUSH1 0x20 DUP2 ADD SWAP1 POP SWAP2 SWAP1 POP JUMP JUMPDEST DUP3 DUP2 DUP4 CALLDATACOPY PUSH1 0x0 DUP4 DUP4 ADD MSTORE POP POP POP JUMP JUMPDEST PUSH1 0x0 PUSH2 0x37F PUSH2 0x37A DUP5 PUSH2 0x32C JUMP JUMPDEST PUSH2 0x311 JUMP JUMPDEST SWAP1 POP DUP3 DUP2 MSTORE PUSH1 0x20 DUP2 ADD DUP5 DUP5 DUP5 ADD GT ISZERO PUSH2 0x39B JUMPI PUSH2 0x39A PUSH2 0x29B JUMP JUMPDEST JUMPDEST PUSH2 0x3A6 DUP5 DUP3 DUP6 PUSH2 0x35D JUMP JUMPDEST POP SWAP4 SWAP3 POP POP POP JUMP JUMPDEST PUSH1 0x0 DUP3 PUSH1 0x1F DUP4 ADD SLT PUSH2 0x3C3 JUMPI PUSH2 0x3C2 PUSH2 0x296 JUMP JUMPDEST JUMPDEST DUP2 CALLDATALOAD PUSH2 0x3D3 DUP5 DUP3 PUSH1 0x20 DUP7 ADD PUSH2 0x36C JUMP JUMPDEST SWAP2 POP POP SWAP3 SWAP2 POP POP JUMP JUMPDEST PUSH1 0x0 PUSH1 0x20 DUP3 DUP5 SUB SLT ISZERO PUSH2 0x3F2 JUMPI PUSH2 0x3F1 PUSH2 0x229 JUMP JUMPDEST JUMPDEST PUSH1 0x0 DUP3 ADD CALLDATALOAD PUSH8 0xFFFFFFFFFFFFFFFF DUP2 GT ISZERO PUSH2 0x410 JUMPI PUSH2 0x40F PUSH2 0x22E JUMP JUMPDEST JUMPDEST PUSH2 0x41C DUP5 DUP3 DUP6 ADD PUSH2 0x3AE JUMP JUMPDEST SWAP2 POP POP SWAP3 SWAP2 POP POP JUMP JUMPDEST PUSH1 0x0 DUP2 MLOAD SWAP1 POP SWAP2 SWAP1 POP JUMP JUMPDEST PUSH1 0x0 DUP3 DUP3 MSTORE PUSH1 0x20 DUP3 ADD SWAP1 POP SWAP3 SWAP2 POP POP JUMP JUMPDEST PUSH1 0x0 JUMPDEST DUP4 DUP2 LT ISZERO PUSH2 0x45F JUMPI DUP1 DUP3 ADD MLOAD DUP2 DUP5 ADD MSTORE PUSH1 0x20 DUP2 ADD SWAP1 POP PUSH2 0x444 JUMP JUMPDEST PUSH1 0x0 DUP5 DUP5 ADD MSTORE POP POP POP POP JUMP JUMPDEST PUSH1 0x0 PUSH2 0x476 DUP3 PUSH2 0x425 JUMP JUMPDEST PUSH2 0x480 DUP2 DUP6 PUSH2 0x430 JUMP JUMPDEST SWAP4 POP PUSH2 0x490 DUP2 DUP6 PUSH1 0x20 DUP7 ADD PUSH2 0x441 JUMP JUMPDEST PUSH2 0x499 DUP2 PUSH2 0x2A0 JUMP JUMPDEST DUP5 ADD SWAP2 POP POP SWAP3 SWAP2 POP POP JUMP JUMPDEST PUSH1 0x0 PUSH1 0x20 DUP3 ADD SWAP1 POP DUP2 DUP2 SUB PUSH1 0x0 DUP4 ADD MSTORE PUSH2 0x4BE DUP2 DUP5 PUSH2 0x46B JUMP JUMPDEST SWAP1 POP SWAP3 SWAP2 POP POP JUMP JUMPDEST PUSH2 0x4CF DUP2 PUSH2 0x233 JUMP JUMPDEST DUP3 MSTORE POP POP JUMP JUMPDEST PUSH1 0x0 PUSH1 0x20 DUP3 ADD SWAP1 POP PUSH2 0x4EA PUSH1 0x0 DUP4 ADD DUP5 PUSH2 0x4C6 JUMP JUMPDEST SWAP3 SWAP2 POP POP JUMP JUMPDEST PUSH32 0x4E487B7100000000000000000000000000000000000000000000000000000000 PUSH1 0x0 MSTORE PUSH1 0x22 PUSH1 0x4 MSTORE PUSH1 0x24 PUSH1 0x0 REVERT JUMPDEST PUSH1 0x0 PUSH1 0x2 DUP3 DIV SWAP1 POP PUSH1 0x1 DUP3 AND DUP1 PUSH2 0x537 JUMPI PUSH1 0x7F DUP3 AND SWAP2 POP JUMPDEST PUSH1 0x20 DUP3 LT DUP2 SUB PUSH2 0x54A JUMPI PUSH2 0x549 PUSH2 0x4F0 JUMP JUMPDEST JUMPDEST POP SWAP2 SWAP1 POP JUMP JUMPDEST PUSH1 0x0 DUP2 SWAP1 POP DUP2 PUSH1 0x0 MSTORE PUSH1 0x20 PUSH1 0x0 KECCAK256 SWAP1 POP SWAP2 SWAP1 POP JUMP JUMPDEST PUSH1 0x0 PUSH1 0x20 PUSH1 0x1F DUP4 ADD DIV SWAP1 POP SWAP2 SWAP1 POP JUMP JUMPDEST PUSH1 0x0 DUP3 DUP3 SHL SWAP1 POP SWAP3 SWAP2 POP POP JUMP JUMPDEST PUSH1 0x0 PUSH1 0x8 DUP4 MUL PUSH2 0x5B2 PUSH32 0xFFFFFFFFFFFFFFFFFFFFFFFFFFFFFFFFFFFFFFFFFFFFFFFFFFFFFFFFFFFFFFFF DUP3 PUSH2 0x575 JUMP JUMPDEST PUSH2 0x5BC DUP7 DUP4 PUSH2 0x575 JUMP JUMPDEST SWAP6 POP DUP1 NOT DUP5 AND SWAP4 POP DUP1 DUP7 AND DUP5 OR SWAP3 POP POP POP SWAP4 SWAP3 POP POP POP JUMP JUMPDEST PUSH1 0x0 DUP2 SWAP1 POP SWAP2 SWAP1 POP JUMP JUMPDEST PUSH1 0x0 PUSH2 0x5F9 PUSH2 0x5F4 PUSH2 0x5EF DUP5 PUSH2 0x233 JUMP JUMPDEST PUSH2 0x5D4 JUMP JUMPDEST PUSH2 0x233 JUMP JUMPDEST SWAP1 POP SWAP2 SWAP1 POP JUMP JUMPDEST PUSH1 0x0 DUP2 SWAP1 POP SWAP2 SWAP1 POP JUMP JUMPDEST PUSH2 0x613 DUP4 PUSH2 0x5DE JUMP JUMPDEST PUSH2 0x627 PUSH2 0x61F DUP3 PUSH2 0x600 JUMP JUMPDEST DUP5 DUP5 SLOAD PUSH2 0x582 JUMP JUMPDEST DUP3 SSTORE POP POP POP POP JUMP JUMPDEST PUSH1 0x0 SWAP1 JUMP JUMPDEST PUSH2 0x63C PUSH2 0x62F JUMP JUMPDEST PUSH2 0x647 DUP2 DUP5 DUP5 PUSH2 0x60A JUMP JUMPDEST POP POP POP JUMP JUMPDEST JUMPDEST DUP2 DUP2 LT ISZERO PUSH2 0x66B JUMPI PUSH2 0x660 PUSH1 0x0 DUP3 PUSH2 0x634 JUMP JUMPDEST PUSH1 0x1 DUP2 ADD SWAP1 POP PUSH2 0x64D JUMP JUMPDEST POP POP JUMP JUMPDEST PUSH1 0x1F DUP3 GT ISZERO PUSH2 0x6B0 JUMPI PUSH2 0x681 DUP2 PUSH2 0x550 JUMP JUMPDEST PUSH2 0x68A DUP5 PUSH2 0x565 JUMP JUMPDEST DUP2 ADD PUSH1 0x20 DUP6 LT ISZERO PUSH2 0x699 JUMPI DUP2 SWAP1 POP JUMPDEST PUSH2 0x6AD PUSH2 0x6A5 DUP6 PUSH2 0x565 JUMP JUMPDEST DUP4 ADD DUP3 PUSH2 0x64C JUMP JUMPDEST POP POP JUMPDEST POP POP POP JUMP JUMPDEST PUSH1 0x0 DUP3 DUP3 SHR SWAP1 POP SWAP3 SWAP2 POP POP JUMP JUMPDEST PUSH1 0x0 PUSH2 0x6D3 PUSH1 0x0 NOT DUP5 PUSH1 0x8 MUL PUSH2 0x6B5 JUMP JUMPDEST NOT DUP1 DUP4 AND SWAP2 POP POP SWAP3 SWAP2 POP POP JUMP JUMPDEST PUSH1 0x0 PUSH2 0x6EC DUP4 DUP4 PUSH2 0x6C2 JUMP JUMPDEST SWAP2 POP DUP3 PUSH1 0x2 MUL DUP3 OR SWAP1 POP SWAP3 SWAP2 POP POP JUMP JUMPDEST PUSH2 0x705 DUP3 PUSH2 0x425 JUMP JUMPDEST PUSH8 0xFFFFFFFFFFFFFFFF DUP2 GT ISZERO PUSH2 0x71E JUMPI PUSH2 0x71D PUSH2 0x2B1 JUMP JUMPDEST JUMPDEST PUSH2 0x728 DUP3 SLOAD PUSH2 0x51F JUMP JUMPDEST PUSH2 0x733 DUP3 DUP3 DUP6 PUSH2 0x66F JUMP JUMPDEST PUSH1 0x0 PUSH1 0x20 SWAP1 POP PUSH1 0x1F DUP4 GT PUSH1 0x1 DUP2 EQ PUSH2 0x766 JUMPI PUSH1 0x0 DUP5 ISZERO PUSH2 0x754 JUMPI DUP3 DUP8 ADD MLOAD SWAP1 POP JUMPDEST PUSH2 0x75E DUP6 DUP3 PUSH2 0x6E0 JUMP JUMPDEST DUP7 SSTORE POP PUSH2 0x7C6 JUMP JUMPDEST PUSH1 0x1F NOT DUP5 AND PUSH2 0x774 DUP7 PUSH2 0x550 JUMP JUMPDEST PUSH1 0x0 JUMPDEST DUP3 DUP2 LT ISZERO PUSH2 0x79C JUMPI DUP5 DUP10 ADD MLOAD DUP3 SSTORE PUSH1 0x1 DUP3 ADD SWAP2 POP PUSH1 0x20 DUP6 ADD SWAP5 POP PUSH1 0x20 DUP2 ADD SWAP1 POP PUSH2 0x777 JUMP JUMPDEST DUP7 DUP4 LT ISZERO PUSH2 0x7B9 JUMPI DUP5 DUP10 ADD MLOAD PUSH2 0x7B5 PUSH1 0x1F DUP10 AND DUP3 PUSH2 0x6C2 JUMP JUMPDEST DUP4 SSTORE POP JUMPDEST PUSH1 0x1 PUSH1 0x2 DUP9 MUL ADD DUP9 SSTORE POP POP POP JUMPDEST POP POP POP POP POP POP JUMP INVALID LOG2 PUSH5 0x6970667358 0x22 SLT KECCAK256 OR 0xE9 PUSH29 0xF243729162AF10BAEEE6D08A03051B01D12979274838BE3FD20D3EAC23 PUSH5 0x736F6C6343 STOP ADDMOD SLT STOP CALLER "
				},
				"gasEstimates": {
					"creation": {
						"codeDepositCost": "410400",
						"executionCost": "infinite",
						"totalCost": "infinite"
					},
					"external": {
						"get()": "infinite",
						"set(string)": "infinite",
						"status(uint256)": "22498",
						"store()": "2473"
					}
				},
				"methodIdentifiers": {
					"get()": "6d4ce63c",
					"set(string)": "4ed3885e",
					"status(uint256)": "42d21ef7",
					"store()": "975057e7"
				}
			},
			"storageLayout": {
				"storage": [
					{
						"astId": 4,
						"contract": "prac.sol:Test",
						"label": "store",
						"offset": 0,
						"slot": "0",
						"type": "t_uint256"
					},
					{
						"astId": 6,
						"contract": "prac.sol:Test",
						"label": "_name",
						"offset": 0,
						"slot": "1",
						"type": "t_string_storage"
					}
				],
				"types": {
					"t_string_storage": {
						"encoding": "bytes",
						"label": "string",
						"numberOfBytes": "32"
					},
					"t_uint256": {
						"encoding": "inplace",
						"label": "uint256",
						"numberOfBytes": "32"
					}
				}
			},
			"userdoc": {
				"kind": "user",
				"methods": {},
				"version": 1
			}
		}
	}
}